:020000040000FA
:2000000000500020E9000000E1000000C9000000E5000000E5000000E5000000000000002E
:20002000000000000000000000000000E5000000E500000000000000E5000000E50000002C
:20004000E5000000E500000019250000E5000000E5150000851E0000E5000000E50000004C
:20006000E500000041250000E5000000E5000000E5000000E5000000E5000000E5000000D7
:20008000E5000000E5000000E5000000E5000000E5000000E5000000E5000000E500000038
:2000A000E5000000E5000000E5000000E5000000E5000000E5000000E5000000E500000018
:2000C000E500000089270000044B1A68B2F5806F03D01B689B0500D4FEE7704728ED00E0C9
:2000E000FEE700BFFEE700BF08B509F033FB104A104B9A420DD2D0430F4918440B4620F03C
:2001000003000430084453F8041B834242F8041BF9D10A480A494FF000028842B8BF40F8AB
:20012000042BFADB00F0B8FAFFF7CEFF08BD00BF0000002076030020E4ED000078030020AD
:20014000F833002070B5284A86B001AB054607CA03C3264E00241A7001A8326824498DF8A2
:200160000D408DF80E408DF80F408DF810408DF811408DF812408DF813408DF814408DF8D3
:2001800015408DF816408DF8174002F061FB33689DF804200133336012B3234601AA12F807
:2001A000011F01330029FAD15A1C144691B201A80AF044FB06A901F8185D10202D0A8DF8F9
:2001C00001500AF0A1FB0B4B00209B68014698472246BDF80010084802F01CFB06B070BD30
:2001E00001242146E3E700BFB4DD0000D4030020D4DD000024ED0000E4DD0000F0B50488AE
:2002000083B0EF2C05464DD0FF2C43D024B100230380032003B0F0BD614B5B689847614AF3
:20022000614B1168526819605A6009F0CDFF21465E4803F025FB5E4B1C78002C39D05D48B0
:2002400001F08CFA5C4C04F1600614F8023C227C0BB1012A79D92034B442F6D1002002468A
:2002600043F6225106F03CFF544B1860002836D042F616664AF6AA24514B00224FF4007128
:2002800006821C80D9815A809A80DA801A815A819A8103E04B4B1B788B4223D0FF232B8068
:2002A0000120B7E7484803F07DF90028C3D10120B0E74548802103F057F9444E444B50210F
:2002C00002223F2059703280187001F0E1FB414AEF230120348014702B8003B0F0BD288022
:2002E000022097E73C4B1B789B07D7D5012003F0B3FB3A4B3A4C1E68002116F8017B962240
:2003000020460DF0DBFC31463A4620460DF0FCFB0BF0C2F90146334802F07CFA2378012BAB
:200320001DD00BF0B9F90228B8D123782C4A012B2ED0022BB2D15378012BAFD1107A537AB7
:2003400043EA0020FFF7FEFEA8E7202001F0E4F9204606F039FE0A2001F0DEF97BE76378FF
:20036000802BDED1A378882BDBD1E378662BD8D12379882BD5D143F6F04202AB43F8082D97
:2003800093E803000BF05CF9174801F0E7F9C8E75378802B82D14FF6FF70FFF7D3FE7DE708
:2003A00058EB0000A0330020B429002044010020C826002008DE000056280020D003002020
:2003C000A0030020F6330020D8030020A8290020BC290020D4260020BC2E0020C82E0020E6
:2003E000E826002020DE00002CDE00002DE9F843038805467BB1B3F58C7F07D10C46F1B1F5
:200400004FF48C732B800120BDE8F883002303800320BDE8F883344C344B01201860636961
:20042000984723699847324B324A33481A6001F095F94FF48C732B800120BDE8F8830120B6
:2004400003F00AFB4AF6AA2E2C4E2D4B37680FCB87E80F00DFF8B480DFF8B890B8F8843015
:2004600096225BBA21462748A9F80E30A9F80240A9F80440A9F80640A9F80840A9F80A4077
:20048000A9F80C40A9F800E00DF018FC1E4A09F1FF3309F10F0013F8011F834202F8011F36
:2004A000F9D1D8F88010194B01F11002102A09DD4C1E17491C44013B13F8010FA34201F82B
:2004C000010FF9D138460F4906F0D6FD32680023138053809380D380138153819381D3814A
:2004E000C8F880308CE700BF24ED0000C833002080270020100000203CDE0000D00300202A
:20050000A0030020E8260020E726002084270020F7260020B0030020F0B5044685B06E460A
:200520006168A268E3680068104D114F0FC520686168A268E36801240FC668460D493C7054
:2005400003F03CFD00216846224603F0FFFB69461E2008F0D7FB38B1A5F11001402208F0AA
:2005600087F9054801F0FAF805B0F0BDC0030020C8260020B429002050DE000008B5054843
:20058000054910220DF08EFA08B101F081FA002008BD00BFE8030020C429002008B54FF475
:2005A000E13001F03BF90448002103F069F9BDE80840024801F066BA5C000020C1050000B9
:2005C00030B5214A85B01378212B11D03F2B06D01E4C1F4B0FCB84E80F0005B030BD537808
:2005E0004D2B18D01B4C1C4A002313702380EFE75178184C18480023502923800370E7D1B8
:200600006C4652F8020F02935168039303C46846FFF782FFDCE7134621241048104902F1F8
:200620001005147010F8012F0233140902F00F020C5D8A5C1C705A70AB42F3D1054C1223B8
:20064000238001F025FACEE7BC290020E8030020C4290020A8290020D4260020B32900200E
:2006600090DE000000B583B06846082101F0B4F89DF807309DF8060043EA002000F056F9BD
:20068000034B0448198802F0C5F803B05DF804FBB4260020ACDE0000F0B54C4C85B02368E8
:2006A0004B4801215B689847236801210A461B684748984709F07CFC01F040FC01F018FC52
:2006C00000F0E2F8434801F049F8434C434801F045F8434801F042F800F046F92388002794
:2006E00001339BB21846238000F026F921883D4802F090F809F060FC00F0ECFE00F052FE52
:2007000003F0EAF800F0D4FF03F01EF841F2342001F050FF01F050FB03F082F9002132482C
:2007200003F0AEF802F0D0FD02F066FE2F4802F071F82F4B2F4C186801F010F82E4802F063
:2007400069F82E4B186801F009F82D4802F062F82C4B186801F002F8FFF784FF0AF0F0F84F
:2007600002A80821019701F037F89DF80F30264ABDF80E109DF80E60118043EA0626E56A9B
:200780004AF6CD310220A84731460320A84709210120A847082202A9636B0B209847A36A8D
:2007A00001A9012098470921184802F033F83946174803F065F8174802F030FD00F086FFC7
:2007C00002F0DCFF00F09AFFFAE700BFD801001000400340BCDE000010280020D4DE000013
:2007E000F0DE000004DF0000CC00002018DF000058EB0000B0E0000020DF000024ED000082
:2008000028DF0000CCEB0000A033002030DF000034000020C8DD000010B5064C0420236859
:200820005B699847236804205B6B98470128F9D110BD00BFB801001010B5064B1C6844B9E2
:200840000121054A196013681120DB6B9847034B1C7010BDF8030020B401001011200240E3
:20086000044B0549002208701A70C20744BF01221A70704711200240C9260020014BC0B247
:20088000187070471D200240F0B59BB009F090FB0746FFF7C1FF1E4B4FF4A0601B68DB69B0
:2008A00098471C4B01211C4A196013689907FCD51A4801F011FB6822684619490DF024F9F2
:2008C000009C621C0FD06D46164E336820469B6B9847336820469B694FF40051984755F85D
:2008E000044F631CF1D10FB909F066FB0D4C0E202368DB6B98470C4B00221A7003F0A2F87B
:2009000023681D20DB6B1BB0BDE8F040184700BFB8010010282008602820084020000020C2
:2009200040DF0000B40100100E200240014B1880704700BFB4260020034600B5002283B0BC
:20094000014608488DF804308DF8052001F062FF01A84FF4F03102220BF0A0FB03B05DF87C
:2009600004FB00BF48E0000000B583B001A94FF4F03002220BF074FB9DF80430044A194698
:200980000448138001F046FF03B05DF804FB00BF1028002070E0000038B50388044643B11E
:2009A000222B0FD113480D4602F0FCFD08B1882D0CD010484FF4F04102F0D6FD22232380AE
:2009C000012038BD00230380032038BD0A4B01221A70002201320F2A08D0002AC8BF002307
:2009E000F8DD00BF01339342FBD1F3E7024B00221A70DEE7FC0300200E200240012070478F
:200A00000120704708B501F03FFB30B1044B5B88022B0CBF0120022008BD022008BD00BF5D
:200A20004402002010B582B001F06AFD044601F02BFB08B902B010BD084801A901F02CFB4E
:200A40000128F7D1638803F44063002BF2D1638803F44063002BF5D0ECE700BF0100010425
:200A600030B583B001F010FB184C88B900256580A37F16485BB2C3F5FF6307339BB201A9DB
:200A8000238301F009FB012809D0284603B030BD6388022B08BF0120E8D103B030BD00F062
:200AA00017FD6FF03F052D1A03E000F011FDC54203D563889BB2022BF7D1608880B2A0F1A0
:200AC0000200B0FA80F04009E7E700BF4402002008B50346B32994BF0A46B42202481946BA
:200AE0000DF012F8002008BD2604002070B50A4D00262C6803E024682B68A3420AD023792D
:200B0000032BF8D1054802F0DBFE24682B680136A342F4D1304670BD180400208000002047
:200B2000F8B5124E35682B79032B02D000242046F8BD2C89023C002C0CDD8C4205F10A074B
:200B40000EDD3957042089B209F0D0FE03207F2109F0CCFE2A68002332602B712046F8BD70
:200B6000394622460CF0D0FFEBE700BF2004002010B582B001F088FAD0B10F4C6388022B90
:200B800016D101A90D4801F087FA02E06388022B03D101F079FA0028F8D16088A0F55050BD
:200BA000043880B201288CBF0020012002B010BD012002B010BD00BF4402002001000104C8
:200BC00010B5114B114C1A680A21237E84F82410928882B003F0F80343F00803204601A911
:200BE0006283237601F058FA012802D0002002B010BD204601F0A2FAA0F10100B0FA80F0FB
:200C0000400902B010BD00BF580000208C02002000B583B00A4801A901F03EFA012803D01E
:200C2000002003B05DF804FB054801F087FAA0F10100B0FA80F0400903B05DF804FB00BF13
:200C40007402002008B5FFF7BBFF012801D0002008BDFFF7DDFF0128F9D1FFF701FFC0B285
:200C600008BD00BF08B501F099FC012808D0FFF77FFF01F053FB01F0BFF9024B00225A8007
:200C8000012008BD440200202DE9F84F01F086FC012818D001F07EF901F0F6F978B901F0BD
:200CA000F3F90446002840F08E8001F05FFA012805460BD001F032FB0020BDE8F88F574BF3
:200CC0005B88022BEBD10120BDE8F88F01F09CFB53494FF4237253480CF016FFDFF88CB13F
:200CE0005148DFF88C91DFF88CC1504F504E5149514B524A04704FF0020A8BF800504FF063
:200D000003084FF0040E052406204D4D89F800A08CF8008087F800E0347008701A602B68E1
:200D20004749002BFBD00020464A474BDFF84881086052F81CCC52F818EC52F8146C52F84F
:200D4000105C52F80C4C52F8207C12E90300203343F8207C43F81CCC43F818EC43F8146C5A
:200D600043F8105C43F80C4C43F8080C43F8041C434502F12002DCD1344B354ADFF8FCC0B4
:200D8000DFF8FCE0334934482D4C344F344E00251862C3F824C00120C3F828E0DF621E6346
:200DA0002560116009F000FA2E4809F061F9224613682349002BFBD000230B6001F03CFA87
:200DC00001287FF477AF002001F040FB2648002103460E46022584245A791E7102F0FC02B8
:200DE00065F383025A71DC808C3343508C31B1F50C7F1D4AF0D1C2F8A42101F0E3F8FFF746
:200E0000DFFE012802D00020BDE8F88FFFF700FF0128F8D1BDE8F84FFFF722BE440200209F
:200E20009CE700001C04002190030021AE030021AB03002181030021C0030021BD0500212D
:200E40001C10044008E1000000C0002180C600210010044001010E046039536311161216EB
:200E6000546B00708C020020DC040020790300217503002177030021A0C600212010101AE3
:200E8000136F236E70B582B007287ED8DFE800F077047D7D207D235E0A2973D8574C4FF4B5
:200EA0007A72208AE38902FB03F302FB00F2A3F5D32302F57F42FF32A3F55A73504803EBEC
:200EC0002243A0FB0323CAB2C3F387139A4266D1002002B070BD4FF6FF744A4DAE88A642A1
:200EE00008BFFF2309D02A460023083290880133A042DBB2F9D1013BDBB255F83330414CD8
:200F000099423FDB236899423CDC0191FFF78AFD4FF6FF739E4201996DD022461C460023F4
:200F2000083290880133A042DBB2F9D1013BDBB255F8332005EBC300914203F1FF3357DDA9
:200F40005A1CF5D1FFF77EFE0020C2E72E4B197001F09AF8E0B12D4B5B88022B08BF002590
:200F600016D1FFF705FE012814BF03240024FFF769FE012818BF03244DBB2046A9E701299E
:200F80002FD041B3022002B070BD012002B070BDFFF77AFE012829D0032002B070BDC823E0
:200FA00003FB01F11A4801F5D32303F55A73A0FB0321184A890902FB01331B04A0FB03236A
:200FC00015488AB29B092382E2810284C0E7FFF749FE20467DE70191FFF744FE01990846E6
:200FE00077E7FFF751FE0128D6D171E70546B8E70A4B1860A6E7FF239AE700BF74020020EA
:201000001F85EB5128EA00007203002044020020D34D621018FCFFFF8C0200205800002019
:2010200089B12DE9F0430C4683B0102800F29280DFE800F0121F90909090848A399090904D
:201040009066696D0B00022070474A4B00201B680B6003B0BDE8F08301F016F830B1464B01
:201060005888A0F10200B0FA80F0400920600020EFE742494FF47A72CB89098A02FB03F390
:2010800002FB01F2A3F5D32302F57F42FF32A3F55A733B4903EB2243A1FB0323C3F387139B
:2010A00023600020D5E700F0EFFF002854D0324B5B88022B08BF4FF000094DD140F2034771
:2010C0000A2580264FF000086B1E13F0FF0569460BD001A8CDF80480ADF8047000F0DCFF04
:2010E00018B19DF802607306EED0B9F1000F39D176B216F1800F26600CBF03200020A8E755
:2011000000200860A5E70A230B600020A1E74FF6FF70184DAB88834208BFFF2309D02A4638
:2011200000230832918801338142DBB2F9D1013BDBB255F83330002023608AE7114B0020E2
:201140001B681B680B6084E70F4B002093F900300B607EE701207CE7FFF796FD012804D1A2
:201160008146ABE7FFF77EFDC2E76FF07F03236003206EE728EA0000440200207402002012
:201180001F85EB51580000207203002070B582B0044600F079FF38B3224B5B88022B08BF2A
:2011A000002621D12049221DA31C204C92B29BB2100A2382E1610A704870FFF7D9FC002095
:2011C000014601F07DF9204601A900F065FF90B90125002001F088F900236380FFF740FCC4
:2011E000C6B9284602B070BDFFF74EFD012816D0012002B070BD00F081FA63880B4A03F431
:201200004063002BF9D0508880B2B0F5505518BF0125DEE7FFF726FD284602B070BD06466F
:20122000C0E700BF4402002024040020B402002010B50C46B32C014694BF2246B4220448AA
:201240000CF062FC2046BDE81040FFF79FBF00BF2604002030B583B001F0A0F901281BD0C6
:2012600000F012FFD0B1154B5B88022B1FD000258024134801A900F00FFF012803D19DF82F
:2012800006406306F5D07DB90E4B64B293F90000A042D4BF0020012003B030BDFFF7F4FC6D
:2012A000012806D10546E3E7FFF7DCFCECE70120F2E7FFF7D7FC0120EEE700BFB40200202A
:2012C000010003047203002008B500F0DDFE58B1064B5B88022B06D1FFF7BCFF10F1FF30C7
:2012E00018BF012008BD002008BD00BF44020020F8B51A4800F0F0FD08F0D6FD012802D075
:2013000000242046F8BD4CF6CC47154C002120464FF40C720CF0D2FC124E134B1348144950
:20132000DFF858C0DFF858E04FF4D9720025CCF8004083E830008362C0F82CE00F82CA81D8
:201340003284FFF7A1FC01280446D9D1094801F0DDF82946084802F093FAD2E744000020B5
:20136000DC0400208C020020180400204402002074020020A8E0000080000020200400201B
:201380000C04002010B5064C042023685B699847236804205B6B98470128F9D110BD00BFE1
:2013A000B8010010F8B51A4A00200021C2E90001184B04201B685B6B9847012801D0FFF7C7
:2013C000E1FF144B00201B68DB699847124B0121124A196013689B07FCD5114A1149136896
:2013E000096823F4807323F001030F4C13600B6820460E49984740F221200D4D0D490E4B02
:2014000004273126012227602E6008601A60F8BD78030020B80100102820086028200840D7
:201420000C000140C801001000000140002100043C000140080001400400244310B40949D9
:20144000094C0B68226808688342FAD1DB01074903EB52620023C1E900235DF8044BD1E91E
:2014600000017047082009400C2009407803002010B50B490B4C0B68226808688342FAD1C6
:20148000DB01094903EB52620023C1E9002302F093F800B910BDBDE8104002F05FB800BFCC
:2014A000082009400C2009407803002010B508F07FFD034B1C6808B908F07EFD204610BD39
:2014C00008200940704700BF0146012000F052B808F0BCBD2DE9F04108F06AFD1D4E1E4BD8
:2014E0001E4F32680124002580464FF480314FF480703D601C601860196013682846232177
:201500009847336820461B6824219847336802201B6825219847124A1249136843F4E02373
:2015200013600D6008F092FD0F4B1049104A1B6800F50070086014603C601B691420984740
:20154000B8F1000F01D0BDE8F081BDE8F04108F033BD00BF84010010042009400000244306
:201560000020094008200940B00100101C200940A0022443431E012B10B41BD9042802D0FF
:201580005DF8044B704700231A4610F004001CBF0E4C216013B10E4B0121196012B10D4BE0
:2015A00001221A600028EBD00B4B01221A605DF8044B704710F0010302D0084A01231160A0
:2015C00010F00202E1D0064C2160DEE72020094080022443A0022443C00224431820094099
:2015E0001C20094008B5FFF773FF184B1860FFF73FFF174B1B686BB9164B1B68E3B9164B48
:201600001B6833B11549164B00204FF4803208601A6008BD124B4FF480721A6008F016FDD1
:2016200000F205200F4B20F4FF7020F001001860084B1B68002BE2D00B49094B002001228F
:2016400008601A6002F060F9D9E700BF0C070020A000244380002443C0002443C00224436D
:20166000042009401C20094080022443820702D5034B01221A60C30700D4704708F09CBC9F
:20168000000C084008B508F093FC074B1A68012A03BF0649022219600022002814BF104692
:2016A00042F0010008BD00BF000C084051E5CC1A03490448044B012208601A60704700BFA1
:2016C00000000840FFFF0F00000C084038B5FFF7D9FF064C064D0749074A012325600B604C
:2016E0001360BDE83840FFF7C1BF00BF00000840FFFF0F000C00084004010043034904489C
:20170000044B012208601A60704700BF00000840FFFF0F000C00084038B50F4D04462B7820
:2017200033B1E0B200F05CFB0A2C0ED0204638BDC02000F055FB0D2000F052FB0123E0B23D
:201740002B7000F04DFB0A2CF0D1C02000F048FB00232B70204638BDCA26002070B5064612
:20176000C020751E00F03CFB002404E015F8010F00F036FB013430460CF0EEFA8442F5D36C
:201780000A2000F02DFBC02000F02AFB00F06EFB0128FBD0204670BD70B50446B0B10078EA
:2017A000C0B1A9B10025661804E014F8010F38B1B44205D000F014FB631C05F10105F4D1C8
:2017C00000F054FB0128FBD0284670BD0546F7E70D46F5E70546F3E710B40B4B0B4C13F842
:2017E000012FFF2A0ED1A342F9D1094A39B11144013801390B78914200F8013FF9D15DF850
:20180000044B7047034AF1E7C7FF0100CFFF0100F0120050C8FF010000F0E2BA014800F028
:20182000F3BA00BFE51A00002DE9F0470388054663B1B3F5A57F04D1822916D00120BDE80E
:20184000F087002303800320BDE8F087834E844C8448854A012133802380038011704FF431
:20186000A5732B800120BDE8F087DFF8F8C1DFF8ECE1BCF80030BEF800207C4901209342BF
:20188000087000F0DD804FF0000170D38F2B18D80C467748774F4FF0C0094FF0DB0800292C
:2018A00000F08D80C15CDD2900F0A280DC2900F0AD80002101339BB2902B00F0C580802C96
:2018C000EDD90024002A00F0C4806948694F00234FF0C0094FF0DB08002967D00178DD292B
:2018E0007CD0DC2900F08C80002101339BB29A4204D9802C00F10100EED9002402F10108BB
:201900001FFA88F8B8F1900F00F09580AEF80080534B1E88B0451CD0DFF8549140464F46BF
:20192000864216D019F80030C02B7BD0431C9BB2902B4FF0000006D1F2E7F95CC02972D0AC
:2019400093B2902BECD0B34203F101024FF00000F3D1ACF80080484B1C80002C3FF47FAFFC
:20196000464B1B6803B1984705F0DAFB77E70C463F48404F4FF0C0094FF0DB0869B1C15CCF
:20198000DD2925D0DC2947D0002101339BB29A42B4D9802CB1D80029F1D1C65CDB2E23D0E7
:2019A00004F1010A3E551FFA8AF4EEE70678DB2E24D004F1010A3E551FFA8AF495E7C65CE5
:2019C000DB2E13D004F1010A3E551FFA8AF471E7661C07F804800021B4B2D6E7661C07F8CF
:2019E00004800021B4B280E70121CEE7012161E7661C07F804800021B4B25BE7012174E7E9
:201A0000661C07F804900021B4B26EE7661C07F804900021B4B24DE7661C07F804900021CF
:201A2000B4B2B2E703461648AEF80030ACF8008001F046FF8FE700239846AEF8003067E735
:201A40000D4B00221A800AE722B1802C7FF63DAF53E714464FF0010858E700BFB8260020C9
:201A6000B6260020BA260020CB260020F433002010070020BC290020A8290020A00700201E
:201A80005C000020014B1860704700BFA007002070B5124EC020FFF7BFFE3388C3B1104D25
:201AA000002408E0DB280FD0FFF7B6FE01343388A4B2A3420CD915F8010BC028F2D1DB20BF
:201AC000FFF7AAFEDC20EFE7FFF7A6FEDD20EBE7C020FFF7A1FE002070BD00BFA8290020BB
:201AE000BC29002038B5254A1378022B20D0032B18D0DB2804BF0223137021490C88631CDC
:201B00009BB2902B02BF00252B460D801D4D18BF0B802D889D4227D01B4BC028185514D0E3
:201B2000002038BDC028FBD101231370002038BD00F12403DBB2012B13D9144B104918880B
:201B4000032308801370002038BD104A13889C4211D09D420E4808BF148001F0B1FE01203A
:201B600038BD01231370C8E7084B03201B8810700B80002038BD0C80D2E700BFCB260020CC
:201B8000B6260020BA26002010070020B82600205C00002038B50C4D02202B685B699847FA
:201BA0002B6802205B6B984701280446064BF7D11B684FF40070DB699847044B044A1C60CD
:201BC00013689B07FCD538BDB801001028200860282008402DE9F04340F2F275DFF8E08000
:201BE00083B0FFF7D7FFD8F800302B4EDB682B48984733682A4C5B69152098472368DFF88D
:201C0000C490284F23F4FE63D9F8002023F0020323603D60D36B1B2098472349D9F80020A3
:201C20004FF0FF334FF0006008600093D2F840C01A481C211B22E047D8F800301748D3F8A2
:201C400004C01A494FF4E1326023E04740F2011240F2013E1649174B14200860196816486B
:201C600041F01001196003681449002B0CBF134673460B603D60036853B12368326843F00A
:201C8000500323601369152003B0BDE8F043184703B0BDE8F08300BFB00100100010004038
:201CA000381000404410004090200240006CDC02341000402C100040A40700203010004081
:201CC000D0010010B401001008B5064B02201B685B6B9847012803BF034B186800F001005C
:201CE000002008BDB80100106C20084038B50446FFF7EAFF18B1264A13681907FCD4032C79
:201D000003D0244B1B6803B138BDFFF7DDFFF0B9214D4FF400702B681B6A9847032C2CD097
:201D20001E4B01211E4A196013689B07FCD51B2000F0EEF81C2000F0EBF84FF0FF3000F0CB
:201D4000E7F8BDE838404FF0FF3000F0E1B8154B15481B68DB689847144B15201B685B6953
:201D6000984740F2F270124A1249136823F4FE6323F0020313600860CAE72B684FF400705C
:201D80009B6A98472B684FF400701B6B9847C7E718100040A4070020B8010010282008605A
:201DA00028200840D001001000100040B0010010381000404410004010B508F0F9F804468D
:201DC000054800F089F8054B00221A6004B110BDBDE8104008F0F0B86C000020A4070020EB
:201DE00010B50446FFF770FF08B9FFF7F3FE044B2146BDE810401B680248DB69184700BFED
:201E0000D00100100010004010B5134B134C1860134A2368A8B1022111615B6A4FF4007049
:201E2000984723684FF40070DB6A98470D4B01210D4A196013689B07FCD5BDE81040FFF73E
:201E4000C9BE10619B6A4FF40070984723684FF400701B6B9847E9E7A4070020B8010010EC
:201E60006C000020282008602820084008B5FFF72BFF18B1024B1868C0F3C00008BD00BF2C
:201E80001810004038B5FFF785FE40F2F2710C4B0C4A1B68116013F0500F10D00A4C0B4D4E
:201EA00005E02B681B699847094B1B6823B923680848DB06F5D538BDC0B29847F7E738BDF5
:201EC000401000404410004018100040D0010010A4070020001000400146014801F0CCBD70
:201EE000A80700200146014801F00ABEA807002010B5054801F0BAFDBDE81040034B0320DB
:201F00001B6820211B681847A807002084010010421C0ED010B50446064B4FF4C0421B6853
:201F200000211B689847044AA3001A430023136010BD7047B4010010001A444210B584B058
:201F40000022412302A8029203930AF047F9042008F066F8032813D00420032108F030F8FD
:201F6000042008F05DF803280346F9D1074A084812680093546800214FF040521C23A04730
:201F800002A80AF081F904B010BD00BFA401001000A00C4000B583B00022412368468DE8B1
:201FA0000C000AF01BF9012008F03AF8012803D00320012108F004F868460AF065F903B0CE
:201FC0005DF804FB00B583B00022412368468DE80C000AF003F9012008F022F8012803D0EB
:201FE000044B986B07F030FF68460AF04DF903B05DF804FB4800001010B582B04123684613
:202000000024019300940AF0E9F80320214607F0D7FF012008F004F818B1044B986B07F01B
:2020200013FF68460AF030F902B010BD4800001070B5038804465BB140F22A22934203D1B9
:2020400082290AD0012070BD00230380032070BD40F22A232380012070BD094B094E1D6916
:20206000FFF74CFB08F0DAFB08F094FB8021A847002880B2ECDD08F087FBF3689847EFE792
:20208000B0E0000024ED0000024B186800F00100704700BF9C21084010F0030370B50646EF
:2020A0000D4602D1028811051FD407F081FF1F4B00301B6818BF0120DB0720D51C4B1D4C34
:2020C0001E6023684CF250322B6003E02368013A2B6014D013F0FF0FF8D018B32878A0F1BF
:2020E0000100B0FA80F0400970BD438007F060FF0E4B00301B6818BF0120DA0702D468B162
:20210000002070BD338813F4405FD7D003F44063B3F5006F04BF084B1E60CFE707F04CFF2D
:20212000002070BD07F048FFD8E700BF9C2108400010044004100440AC0700200A4A01E0DD
:20214000013A0ED0438803F44063B3F5806FF7D1428802F44062A2F58060B0FA80F0400966
:2021600070471046704700BF20A1070030B583B007F01EFF254C0546236819201B6A984704
:20218000236812201B6A9847236819205B699847236812205B6908349847236801205B69AB
:2021A0009847236801205B6B98470128F9D11849184B194A0860186013689B07FCD5134CA8
:2021C000164817492268002303600B60136919209847236812201B699847A5B140F2FF3556
:2021E000104B114A11481249002405600C60114801A91A60FFF750FFA0F10100B0FA80F012
:20220000400903B030BD07F0D7FEE7E7B00100102C20084028200860282008401010046022
:20222000141004600010044051000706000004601C1004400100060440F60A0230B5164BFD
:2022400087B01D680024012301A8694601940494059502940394ADF804208DF81130FFF7A9
:202260001BFF012802D0204607B030BD0B4801E00138F9D0BDF8063003F44063B3F5806FED
:20228000F6D1BDF8060000F44060A0F58060B0FA80F0400907B030BDB407002020A1070009
:2022A00010B540F6090486B00023012201A8694601930493029303930593ADF804408DF8E6
:2022C0001120FFF7E9FE012802D0C0B206B010BD0F4801E00138F9D0BDF8063003F4406341
:2022E000B3F5806FF6D1BDF8063003F44063B3F5806F02D0002006B010BD064B1A782AB929
:20230000054A0599012011601870DFE70120DDE720A10700CC260020B407002030B587B03A
:2023200007F046FE2F4C0546236819205B699847236812205B6998472B4B1B68DA0715D511
:2023400040F60D04294A2A490023136002A80B60012201A90293059303930493ADF8084091
:202360008DF81520FFF798FE01282CD0FFF798FF2048214B00240121204A04601960136889
:202380009B07FCD51E4C012023689B699847236801205B6B98470228F9D1124C192023686A
:2023A0001B6A9847236812201B6A9847236819201B699847236812201B6998470DB907F094
:2023C000FBFD07B030BD0F4A01E0013ACED0BDF80A3003F44063B3F5806FF6D1BDF80A3078
:2023E000C4E700BFB00100109C21084010100460141004602C2008402820086028200840CD
:20240000B801001020A1070008B507F075FD052803460BD003280DD018B101280FD00020BB
:2024200008BD094B03221A60012008BD064A0120136008BD044B02221A60012008BD024A36
:202440000521116008BD00BFD0210840F8B5164A164B1268002814BF00241C46D30700D411
:20246000F8BD07F0A5FD0646114A1248124F134D00214FF000433B60046011602B6819206D
:202480001B6A98472B6812201B6A98472B6819201B6998472B6812201B69984706B1F8BDEC
:2024A000BDE8F84007F088BD9C21084000008080101004601410046018100460B0010010A5
:2024C0000028064B14BF08220222002918BF0023034804491A4303600A60704700008080C6
:2024E0001010046014100460034B0028034A18BF00231360704700BF0000808014100460A2
:20250000014B1868704700BFAC070020014B1860704700BFB007002008B5074B1B68DB0721
:2025200004D4FFF723FE012800D008BD034B6FF000421A6008BD00BF9C2108401010046078
:2025400008B5124B1B68D90707D41148FFF706F9FFF70CFE012800D008BD07F029FD0D4BA2
:202560001A6812020BD40B4B1A6812F00A0F1CBF6FF00A021A60BDE8084007F01DBD6FF412
:2025800000021A60044801F09BF9ECE79C21084064EA00001010046080000020014B1878C8
:2025A000704700BFCD26002008B500F08BF880B208BD00BF00F010B938B50C4D04202B68F6
:2025C0005B6998472B6804205B6B984701280446064BF7D11B6840F20140DB699847044B08
:2025E000044A1C6013689B07FCD538BDB80100102820086028200840034B1B68002B14BF56
:2026000001200220704700BFB8070020F8B503880446002B2ED0B3F5847F05D1184B1B7800
:202620008B4205D00120F8BD002303800320F8BD144D2B6873B1144B144A1B6812685B680F
:202640000220174698470026301847F100012B6898472E600E4B40F201401B689B6A984742
:202660000C4B01210C4A196013689B07FCD50B48FFF738FC4FF4847323800120F8BD00BF35
:2026800073030020B8070020CC01001004800240B801001028200860282008409000002069
:2026A00008B5064B04201B685B6B9847012803BF034B1868C0F34000002008BDB801001066
:2026C0003C20084070B5274B1B689BB1264C0023224612F8011B29B90133042BF9D100209E
:2026E000014670BD214A002502EBC302E55492E8030070BDFFF7D4FF00282FD01C4A1D4B83
:202700001268134073B91C4A01211346116018680028FCD102464FF4807107F079FB174BB0
:2027200001221A6007F044FC0646114A1368DB07FCD5134B134A1B6814685B680220984772
:2027400023460022141843F1000516B12046294670BD07F031FC2046294670BDFFF72CFF79
:20276000CCE700BFB8070020BC070020800300200880024001000080F09F0240A80250422A
:20278000CC0100100480024038B50E4D00240E4A2C6013680D4923F00103096813604B69C6
:2027A00031209847204622464FF4807107F030FB0122074B2A6019782246BDE83840054863
:2027C00001F032B8A80250420C800240B001001073030020A400002010B5074C2378802B9B
:2027E00000D010BD00F0A8FF207000210348BDE8104001F045B800BF73030020A4000020AD
:202800000AB90020704708B508461146FEF7C4FF002008BD0FB400B583B004AB53F8041B5B
:2028200004481A46019300F04BF803B05DF804EB04B07047B400002038B5044615460068F5
:202840000BF062F9236800201D44256038BD00BF0EB430B586B009AB53F8041B084D0190FC
:202860001A4601AC04A803930495059400F028F8019B00221A7006B0BDE8304003B070474A
:2028800039280000102970B50C46054602D80AE0102C0BD92B686868084910229847103CE7
:2028A0000028F5D070BD08460029FBD022462B6868680249BDE87040184700BFFCEA00004D
:2028C0002DE9F04F82460F468FB007924FF0000B3B78002B00F0E880252B08BF3E461BD0A8
:2028E0003C4602E0252B04D014466378621C002BF8D1974216460CD0D51B39462A46DAF8E7
:202900000030DAF804009847002840F079826378AB44002B00F0C88073780136002B00F015
:20292000C38019460025A1F12003102B1BD8DFE803F0171A1A141A1A1A1A1A1A1A111A0EE5
:202940001A1A090045F0100516F8011FEBE745F00105F9E745F00605F6E745F00805F3E79C
:2029600045F00205F0E7A1F13102082A0B46374600F2DC80A1F13002092A4FF000040AD815
:2029800004EB840403EB440417F8013F303CA3F13002092AF4D92E2B00F0D1804FF0FF36FB
:2029A0006C2B00F03D81682B00F04281782B00F28180DFE813F079007F007F007F007F00B7
:2029C0007F007F007F007F007F007F007F007F007F007F007F007F007F007F007F007F0007
:2029E0007F007F007F007F007F007F007F007F007F007F007F007F007F007F007F007F00E7
:202A0000BE027F007F007F007F007F007F007F007F007F007F007F007F007F007F007F0085
:202A20007F007F007F007F007F007F007F007F007F007F007F007F00BB027F007F007F0068
:202A4000B802B502B2027F007F007F007F007F007F007F007F007F007F007F007F007F00DE
:202A60007F007F007F00AF027F007F007F007F007F007F007F007F00AC027F00A902A602B0
:202A8000A302A0029D027F00A6027F007F007F007F009A0297027D007F007F0091027F006B
:202AA0008E027F007F00940258460FB0BDE8F08F45F4407505F4E063B3F5806F07F10107B0
:202AC00000F0CE804FD9B3F5C06F00F0A581B3F5E06F00F09A81B3F5A06F7FF4F9AE079B2E
:202AE000012C1A6803F1040307938CBF04F1FF340024EB078DF8202000F1D0815046214605
:202B0000FFF7C0FE002840F07B81DAF80030DAF8040008A901229847002840F071810BF1DC
:202B2000010C0CEB040505EB040BD1E62A2900F08C800B462E2B4FF000047FF42FAF7B7852
:202B4000791CA3F13002092A7AD80F46002606EB860603EB460617F8013F303EA3F13002E0
:202B6000092AF4D91CE7B3F5807F00F0B080B3F5407F7FF4ADAE079BC34A1968C34815F412
:202B8000804F03F1040308BF9046079318BF80460A460023002900F094810DF1330948462E
:202BA000110941EA03714FEA131E02F00F0673460A4618F8061000F8011D52EA0301EFD1A6
:202BC000B9EB0006034600F07E810336B4424FF030024FF078014FF0230300F8022C8CBFE5
:202BE000A41B0024EA0700F8011C00F8033CA0F1030800F1A18150462146FFF743FE0028AA
:202C000040F0FE804146DAF80030DAF8040032469847002840F0F4805E4406EB040B57E6A5
:202C20007B786C2B00F00481013745F06005BDE67B78682B00F09381013745F04005B5E649
:202C40002A2B00F091810F46A8E6079B771C1C680433002C0793B8BF45F0010573789AE667
:202C6000079BD3F8009004330793B9F1000F00F08F8299F80030002B00F0B2824B4613F820
:202C8000012F002AFBD1C9EB0308002E02DBB04528BFB04644458CBFC8EB04040024E907CF
:202CA00000F1E08050462146FFF7ECFD002840F0A7804946DAF80030DAF80400424698479A
:202CC000002840F09D80D84408EB040B00E6002EABBF25F0100501230196019315F400530E
:202CE000049305F0E00300F0A880402B00F07F8200F24181002B00F02D82202B40F05A821C
:202D0000079B1A1D079293F90020D317002A73F10001C0F22A82CDE902230023059305F42F
:202D2000C053B3F5805F00F09281B3F5C05F00F0BF81B3F5006F00F067810DF136064FF097
:202D40000008019B41F20802984541F6080303EA050380F0338101999342C8EB01010191A4
:202D600000F0468141F6080201999342414400F031814FF000094A46049B73B1059B002B5F
:202D800040F0838105F00603022B00F01B824048062B04BF02464FF0010909EB01039C4264
:202DA0008CBFE41A002415F00103049306D1E80640F1F681019B2344049C0193B9F1000FA9
:202DC00007D01146DAF80030DAF804004A469847B0B9019B08EB0B05102B40F291819B4616
:202DE00003E0BBF1100F40F28E81DAF80030DAF80400284910229847ABF1100B0028F0D0EB
:202E00004FF0FF300FB0BDE8F08F079B1A680433C2F800B007935BE5DAF80030DAF80400EA
:202E20001D49012298470028EAD10BF1010B4FE5BB7845F080050237B8E5402B00F0C681A6
:202E400000F2A980002B00F09881202B40F02181079B049A05921A1D07921A780023CDE9F4
:202E600002235CE74946DAF80030DAF80400424698470028C4D150462146D844FFF702FD51
:202E800000283FF421AFBBE790DE0000C8EA0000ECEA00000CEB0000F8EA0000DAF8003094
:202EA000DAF8040008A9012298470028A8D1504621460BF10105FFF7E5FC00283FF433AED6
:202EC0009EE70DF13303302203F8012C581E04267CE645F41065EDE545F48065EAE545F417
:202EE000C855E7E545F48855E4E545F4E065E1E545F48135DEE545F40075DBE545F4024526
:202F0000D8E545F42455D5E545F4A065D2E545F4C135CFE545F4B245CCE545F4A135C9E512
:202F200045F48445C6E545F44245C3E545F4E135C0E545F4C065BDE54146DAF80030DAF82D
:202F400004003246984700287FF45AAF504621465E44FFF797FC00283FF45FAE50E7BB7878
:202F600045F02005023721E5079ABB78111D07911668023714E5602B00F0EC80802B40F0AC
:202F80001981079B073323F0070303F108020792D3E90023BAE6602B00F0EF80802B78D1AA
:202FA000049B0593079B073323F0070303F108020792D3E90023CDE90223B0E6934200F035
:202FC000EC800022019241F608020199934241447FF4CFAEDDE9022313433FF4CAAE874BED
:202FE00015F4804F864A4FF0020908BF1A46C3E60B46002908BF01230193019B4FF0000932
:203000004A4603EB0801B7E6DDE9028942464B46134300F0E7800DF136031E4606934046BB
:2030200049460A2200230AF067FA30324046494606F8012D00230A220AF05EFA804689467E
:2030400058EA0903EBD1069BC6EB030879E6DDE90223134300F0C6800DF1360306939E467F
:20306000DDE90223D00840EA4370DE0802F007013346024630310EF8011D52EA0301F1D188
:20308000069B7646CEEB03085BE64FF001095D4A83E605F4C053002200200021B3F5805F7F
:2030A0000592CDE90201D2D0B3F5C05F40F08580DDE90201544A554B15F4804F14BF90469A
:2030C000984602460B46134300F08C800DF1360306931E4602460B46110941EA03714FEA68
:2030E000131E02F00F0073460A4618F8001006F8011D52EA0301EFD1069BC6EB030820E6F6
:20310000019B9B464BB15A46DAF80030DAF804003F49984700287FF473AE31464246DAF8CA
:203120000030DAF804004D44984700287FF468AE019B2B441E46049B002B3FF46EAD50464B
:203140002146FFF79FFB00287FF45AAE06EB040BFFF7BEBB079B1A6804330793002A4FEA0E
:20316000E27373F10001BFF6D6AD524263EB4303CDE9022301230593D1E5049A079B059211
:203180001A680021104604330793CDE90201C6E5DFF884904FF0060877E5012301932CE7A2
:2031A000504621460292FFF76DFB029A00283FF405AE25E600220023ADE5DDF814800DF12D
:2031C0003606BEE5134A4FF00109E6E5079B049A05921A1D07921A880023CDE902239EE5D5
:2031E000984652E54FF000080DF13606A9E5079B1A1D0792B3F90020D31787E5E0EA00004D
:20320000DCEA0000E4EA0000C8EA000090DE00000CEB0000E8EA0000F0EA000010B5044648
:20322000006830B1002100F02BFB54F8040F0028F8D110BDF0B5038883B005465BB14A2BC2
:2032400004D188291BD0012003B0F0BD00230380032003B0F0BD194800F00CFC044630B1CF
:20326000201DA16800F080F92468002CF8D1144B01221A704A2301202B8003B0F0BD0F4822
:20328000019200F0F7FB04460028F3D0019A031D9A4205D02468231D002CEBD09A42F9D1BF
:2032A0000648214600F02CFC064E6269A369376832600BB1E06998473760DBE7C0070020C1
:2032C000CE260020CC07002010B5064B002406481C7000F0CBFB2146BDE81040034800F086
:2032E000CFBA00BFCE260020C0070020BC00002070B504460D48049D0078A261E3616561C5
:2033000030B9A1600A482146BDE8704000F0B4BB084D094B2E68201D2B6000F025F92E60B3
:203320002146BDE87040024800F0A6BBCE260020C0070020CC070020BC00002010B5044C57
:2033400082B024680094FFF7D3FF02B010BD00BFCC07002070B5094B04461B783BB1084D8B
:20336000084B2E6804302B6000F008F92E602146BDE87040044800F07FBB00BFCE26002021
:20338000CC070020BC000020C007002070B5094B04461B783BB1084D084B2E6804302B6038
:2033A00000F0F6F82E602146BDE87040044800F063BB00BFCE260020CC070020BC000020E9
:2033C000C007002010B50A4B04461B783BB9C36003612146BDE81040064800F091BB04307A
:2033E00000F0F2F82146BDE81040024800F088BBCE260020C0070020704700BF10B50E4C8A
:203400002368B3B1FEF71AF822685168136892681944091A4AB192E8180023441B1A92685B
:20342000994228BF1946002AF5D1044B0844186010BD024A136010BDC4070020C807002035
:203440002DE9F041038805467BB1592B08D1872912D0822920D059232B800120BDE8F0813B
:20346000002303800320BDE8F081254A0120136059232B80BDE8F081214F3B68002BEAD035
:20348000D9688A4203D024E0D9688A4220D19B68002BF9D13B60DEE7194F4FF000083C689F
:2034A000002CD8D0002604E0A3682646002BD2D01C46204600F050FA0028F5D0E06888210A
:2034C000224600F0B1F978B10E4800F0F9F9EBE73B6099680029BED0C86882420BBF8968B5
:2034E0000B4699608968F5E7E060A3682EB1B360C4F80880FFF782FFD1E73B60F8E700BFCC
:20350000C4070020CC00002010B50446104800F0D7F91049E3680A684BB142B194420FD0F3
:20352000134601E09C420BD09B68002BFAD10A4BA2601B680C60E360BDE81040FFF75EBF0E
:20354000054B1B68E360BDE81040FFF757BF00BFCC000020C4070020CC070020014800F092
:20356000AFB900BFCC00002010B5044600F0E0F92046BDE81040FFF7C7BF00BF10B50446BB
:2035800000F0DEF92046BDE81040FFF7BDBF00BF10B5044600F0DAF92046BDE81040FFF7B5
:2035A000B3BF00BFC068B0FA80F04009704700BF05C81044704700BF024B1868003018BF6E
:2035C00001207047C407002010B5114B04461A68904218D05AB19368834208BF13460AD0BC
:2035E0002BB19A68A24206D01346002BF9D10023A360E36010BDA2689A60FFF7FFFE002395
:20360000A360E36010BD82681A60FFF7F7FEEEE7C40700202DE9F843DFF8A480274DD8F8F8
:2036200000702E68874247D077B33B4601E0002B3BD01B689842FAD133B3837B89460446BD
:2036400023B3002383736FB1BC424FF0870106D0BB7BDB0703D53846224600F033F83F6828
:20366000002FF1D1A3683BB14C4505D02C6004F10C00832100229847D8F80000844208D15B
:203680002368C8F800302E60BDE8F88338468442F6D00028F7D00368A34208D0002BF2D0F3
:2036A0001A68A24204D01346F8E7BDE8F883034622681A602E60E7E73B46BDE7CC070020B7
:2036C000D007002070B586687EB104460A4802230460A37304F10C000D46B04702380128C8
:2036E00004D9832D02D00123A37370BD20462146BDE87040FFF78EBFCC07002070B50C4A31
:203700000C4B146800251D7084B1012601E0246864B1E37B002BFAD0A673E5732046822179
:203720000022FFF7CFFF2468002CF2D170BD00BFD0070020D1260020024B1878421C1A7069
:20374000704700BFD226002070B407480749084A0023084D084C8A2603700B6013602E705B
:20376000237070BC704700BFD0260020D0070020CC070020D2260020CF2600202DE9F041A0
:20378000244D2B780BB1FFF7B9FF234E3378D3B1DFF890E0214F9EF80020013B02EB420132
:2037A00089007C180132A068DBB202F01F0233708EF800207F5CD4F8048098B1812F06D0CE
:2037C000827BD20705D428781844BDE8F0810123837339464246FFF775FF337828781844F6
:2037E000BDE8F0810E4A146834B9ECE7A37BD9070AD42468002CF0D02B78002BF6D0FFF741
:203800007DFFA37BD907F4D5204639464246FFF759FFEEE7D1260020D0260020D4070020AD
:20382000D0070020CF260020F0B40C4D2C78202C11D00B4B0B4E1B78671C234403F01F036D
:2038400003EB43039B00F418A06062602F70F1540020F0BC70470120F0BC7047D0260020CA
:20386000CF260020D407002038B5837B034CDB07256801D5FFF726FF256038BDCC07002031
:2038800070B404460D4D2868A04206D038B1034600E023B11B689C42FBD170BC7047002CF6
:2038A000FBD0012600232060A673A3810A4620462C60812170BCFFF7D7BF00BFD0070020E4
:2038C00038B1837B013B012B03D8024A01231370C3737047D1260020FDF7F4BD38B5094CE0
:2038E000049D226822B180E82A002060002038BD024680E82A0008462260FDF7E5FD002003
:2039000038BD00BF5409002010B5084C206858B100224368816822609847236823B1BDE8B1
:2039200010401868FDF7D0BD10BD00BF5409002010B541600446FDF781FD206010BD00BFFF
:2039400090E80C0013440360704700BF10B50446FDF774FD206010BD10B50446FDF76EFD84
:2039600023686268C3F10103184482422CBF0020012010BDF8B5048805466B2C0CD07D2C81
:203980001BD01CB1002303800320F8BDFFF7D4FE1E4A1F4B10701C601D4C264604E00A2870
:2039A00013D023687E2B2BDD1A4800F0D5F8431CF5D16B232B800120F8BD852901D00120F5
:2039C000F8BD134C00232360E6E7114C124F23680E49002603F1010E3A4609783046FE54CE
:2039E000C4F800E0FFF720FF0C4B324618688521FFF71AFF0028E5D17D232B800120F8BD13
:203A000005495A1CC8543260CEE700BFF5330020600A0020580A0020D8090020CC07002078
:203A200008B505480549802200F08EF8BDE8084003480021FFF724BF580A002058090020E1
:203A4000DC00002008B5FCF7F7FE024B00221A7008BD00BFD3260020034A13784340184676
:203A60001370FCF7FDBE00BFD326002000230360704700BF00687047026842B1914203D11E
:203A80001BE099420ED01A461368002BF9D100230B6002680AB90EE01A461368002BFBD127
:203AA000116070470B68136000230B6000230B600268002AF1D1016070470B680360F3E7BE
:203AC00010B404684CB1A14217D0224602E0994208D01A461368002BF9D10C6001605DF800
:203AE000044B70470C460B6813600023236004680C6001605DF8044B70470B680360F4E79D
:203B0000026842B18A4203D10BE0994204D01A461368002BF9D170471968116000221A60F9
:203B20007047134612680260F8E700BF03682BB100201B680130002BFBD17047184670471D
:203B400000B10068704700BF0023013A0160027143718371704700BF0346807959791A79DF
:203B6000091A114208D010B4411C1C680A40205C9A715DF8044B70474FF0FF30704700BF42
:203B80002DE9F84302FB0105099F1646A8424FF0000204463A609DF820801DD299464FEA82
:203BA000D80807E04946424609F07CFF88B13444AC4207D22378A01C002BF3D13C603444E1
:203BC000AC42F7D33B68002B14BF01200220BDE8F8833C60BDE8F8830220BDE8F88300BF6C
:203BE0002DE9F041174D82B0009104460E4690461F4601950346032113482022FFF7C0FF29
:203C000001281BD12B68187020682B68D4F804E0A168E268C3F802002868C3F806E0C3F8AD
:203C20000A10C3F80E20089B86744361099B80F813800777836102B0BDE8F081002002B095
:203C4000BDE8F081680A002038290020F8B50C4B07461C460B4D03F160062B602378A01CF4
:203C60002BB1A27C3946D20809F01CFF28B12034B4422C60F2D30020F8BD0120F8BD00BFFF
:203C800038290020680A002010B5094C82B0802203468DE81400074803212022FFF770FF37
:203CA00010B9206802B010BD002002B010BD00BF6C0A0020542800200E4B30B403F1600112
:203CC00048F2FE040C4D05E09A7C824207D020338B420BD01A78002AF9D0421CF4D15A8834
:203CE000A242F4D118462B6030BC70472B60002030BC7047542800206C0A0020F0B5114D0C
:203D000083B0802203468DE82400044605210E481222FFF735FF012811D12B68187020681A
:203D20002A686768A668E168C2F802002868C2F80670C2F80A60C2F80E1003B0F0BD0020D3
:203D400003B0F0BD640A0020D82800202DE9F0410446254D82B080208DE821000F469046BF
:203D60002346224803212022FFF70AFF012837D12B68187026682B68D4F804E0A168E2689B
:203D8000C3F802602E68C3F806E0C3F80A10C3F80E2086F81380D7B93075154B0022FF2129
:203DA00001200227B0745F70D872197019735A809A80DA801A819A72627B18465A73E289FF
:203DC000DA81FFF79BFF286802B0BDE8F0810023337506F11800394608F06AFA2E68DCE792
:203DE000002002B0BDE8F0816C0A002054280020700A002010B5094C82B0802203468DE863
:203E00001400074805211222FFF7BAFE10B9206802B010BD002002B010BD00BF640A00207B
:203E2000D8280020E8B138B504460E4B0025FF22022001215870D9721A735D809D80DD80B8
:203E40001D819D721A70E27B18465A73228ADA81FFF7D0FF044B186000B105700023237034
:203E600038BD7047700A0020640A002038B5134B134C1846236003F1600504E020682030CE
:203E8000A842206012D20378002BF7D0037D002BF4D1183008F014FA0028EFD02068FFF744
:203EA000C1FF20682030A8422060ECD300F062FBBDE838400348FFF761BB00BF542800201F
:203EC0006C0A00209829002048F2FE0C2DE9F84F0B88804663453FD00B78FF2B3CD0354A82
:203EE000354F00201346814602F1600E3A6003E0203373453B601FD01A78002AF8D09A7CF1
:203F0000012AF5D15A886245F2D04E1E5D1C002216F801AF15F8014F02F1080BA2451FD166
:203F20005FFA8BF2802AF3D191459CBF91461846203373453B60DFD140B350F8024F41684C
:203F40008268C368C8F80040C8F80410C8F80820C8F80C30BDE8F88F0120FFF7ADFEEBE7D4
:203F600002F1080615468AEA0404F2B2660014F0800F05F1010AF4B21AD15FFA8AF595428B
:203F8000F4D191459CBF91461846D1E7A8F80000A8F80200A8F80400A8F80600A8F808000A
:203FA000A8F80A00A8F80C00A8F80E00BDE8F88F2A46B9E7542800206C0A00200B684A686A
:203FC0008360037AC26083F002030372704700BF10B5FEF7E9FA0446FEF7E6FA054B2402CA
:203FE0009A68A4B22044B0FBF2F302FB130000EB520010BD3C2800202DE9F041344E82B0DC
:2040000001F028FD00F09CF800216022314809F055FE30460021F82209F050FE2E4C2F49B4
:204020002F4B4FF0400818224FF4A06520203560B4601A7086F804800870FFF7C9FF48F218
:20404000FE0E42F2107C40F2FF27264C002500950195F060A4F800E041462A462B462046E0
:204060006580A580E580C6F810C03575FFF7B8FD1D4A04F1080310685168012203C3237AD0
:20408000294683F0020320462372FFF75FFE4FF480732046E3816580A580E58025816581F0
:2040A000A5812780FFF72AFE4FF40073204627806580A580E58025816581A581E381FFF7D7
:2040C0001DFE0A480C2102B0BDE8F041FFF74CBA3C28002038290020808D5B0035290020D7
:2040E00034290020700A0020B4290020982900202DE9F84305460F480F469046FFF7BAFC01
:204100000446A8B1DFF834900BE0D9F800302846394642466668B0472046FFF711FD044687
:2041200030B1012DF1D80448FFF700FD0346EEE7BDE8F883300F0020C80A0020C00A0020EF
:2041400008B50B4808F004F90A48FFF78FFC0A4B0A49186806F044F9094808F0F9F80948A1
:20416000FFF784FCBDE808400748FFF77FBC00BF0C0100206C0B0020080100203943000034
:20418000EC000020C80A0020300F002048B108B5044A4168106806F069FABDE8084001F066
:2041A000A9BC7047080100200148FFF763BC00BF6C0B002008B1FFF7C3BC704708B501F073
:2041C000A1FC38B1044B0146186806F00BFA003018BF012008BD00BF080100202DE9F0412C
:2041E00007461B48FFF746FC044650B30026B04694F8245004F10801B5424FEAD50207D38F
:20420000384609F04FFC18B9802D1FD02E46A0462046FFF795FC04460028E9D1B8F1000F44
:204220000FD00B48FFF726FC804507D008484146FFF766FC06484146FFF742FC4046BDE835
:20424000F0814FF000084046BDE8F081A046E8E76C0B0020002840D04368002B3DD070B57E
:20426000054622482946FFF74BFC6B685868FFF701FC044628B929E02046FFF761FC044620
:2042800020B36368AB42F7D105F108066B6821465868FFF735FC6B685868FFF7EBFBE8B19E
:2042A0002946134808F084F82146124808F080F8114A28461368013B1360FFF767FF3146C9
:2042C000BDE8704002460320FFF712BF05F10806304602F079FE0024D8E77047074A6B68B6
:2042E0001068596806F098F9DAE700BF6C0B00200C01002018010020C00A0020080100206E
:20430000B0B14368A3B110B504461846FFF7B2FB38B14068FFF79EFF6068FFF7ABFB00287D
:20432000F7D1044B2146BDE81040186806F074B9704700BF08010020FFF7E2BF2DE9F84FD4
:20434000064610469046894601F0DCFB0746002866D03046FFF742FF044660B1FFF716FF90
:2043600030B101461022404609F09CFB002854D02046FFF76FFFDFF8E8A0DAF80030142B17
:204380004ED0DFF8E0B03946DBF8000006F02AF90546002847D02F4807F0ECFF04460028D8
:2043A0003ED02D482146FFF78BFB2C4807F0E2FF0746002847D0446001466868FFF75CFBB7
:2043C000DAF80030656029460133DBF80000CAF8003006F037F930687168B268F36800257D
:2043E00004F108070FC784F824903146424625766576A576E57625776577A577E57784F85C
:20440000205084F8215084F8225084F823500220FFF76EFE2046BDE8F88F2046BDE8F88FBA
:204420000020BDE8F88F03463946DBF80000042206F046F805460028F2D0002380E8280053
:20444000FFF714FBA7E72146024807F0B1FF3846BDE8F88F0C0100206C0B002018010020CA
:20446000C00A00200801002010B504460E48FFF701FB40B1A04202D106E0844204D0FFF7B6
:204480005FFB0028F9D110BD21460748FFF738FB2146064807F08CFF211D0A46BDE810406A
:2044A0000120FFF725BE00BFC80A0020EC00002038B505460A48FFF7DDFA044628B90DE0D6
:2044C0002046FFF73DFB044640B1201D2946102209F0E8FA0028F3D1204638BD002038BDF8
:2044E000C80A0020F8B50F460546FFF7E1FF0646B8B128686968AA68EB68341D0FC447B908
:2045000001233377002029462A46FFF7F1FD3046F8BD394606F1140007F0CAFE00233377A9
:20452000F0E7054807F026FF06460028EFD003483146FFF7C5FADCE7EC000020C80A0020D0
:2045400038B50B48FFF796FA044670B1251D284601F0B2FA08B1437C2BB92046FFF7F0FA3B
:2045600004460028F2D1284638BD0546FBE700BFC80A002010B50D48FFF77CFA044664B1E0
:20458000237F04F1140013B907F09AFE30B92046FFF7D6FA0446002CF2D110BD2046FFF79E
:2045A00063FF0248FFF766FA0446E8E7C80A0020013A0A44914230B414D20C4625786378FE
:2045C000023403EB05239BB2184480B2834284BF013080B2A242F1D8CB43134423F0010320
:2045E00002331944914201D030BC70470B7830BC1B02184480B2834284BF013080B27047A6
:2046000030B5134B134D1C782B796A79C4EB0323134483B09BB2ADF80630BDF8063005F174
:2046200008011844202280B2FFF7C2FFBDF8062004F12801294492B2FFF7BAFF18B94FF67B
:20464000FF7003B030BD40BA80B203B030BD00BFD4260020BC290020022318462DE9F041D7
:204660002C4D2D4E2A782D4F2832B1184978C90001F1070E704549DC8118745CDFF8988042
:20468000012C31440AD01DD3632C0DD13B70234C02F0CEFFD0B90120BDE8F0814C780234AE
:2046A0000319DBB21846E5E704F0C004802C1AD0C02C25D0402C1FD04B7802330344DBB2D1
:2046C0001846D7E7431CDBB21846D3E72B78227828331344984498F8013000201344023382
:2046E0002370BDE8F0813B7002440221042007F075FF0220BDE8F0813B700120BDE8F08154
:2047000098F818103B70FF29EED1C4E73B700020BDE8F081D4260020BC290020D626002088
:2047200070B4C278134C0A44D2B2E27083780E0A3344DBB2A37045789E42657000782070F4
:2047400003D90135EDB265708DB1C9B28A420CDA0133DBB2A370074A3BB953780133DBB2C3
:20476000537013B913780133137070BC704701302070EAE7B029002010B5084C0146206812
:204780001430FFF7CDFF064A2368507814789178D2781C7558759975DA7510BDCC2E0020EF
:2047A000B02900203A20FFF72BBF00BF08B5FFF723FC07F0FDFF01F01DFB0F4B002103F1CA
:2047C000280223F8021F9342FBD10C4B002103F5F07283F8251030339342FAD1084A094BA7
:2047E0004FF48061118003F5A07100221A8220338B42FBD108BD00BFB6300020D02E0020A9
:20480000BC260020E43000202DE9F041134E347814B3134F04F127033D88AB4204DB002312
:204820003B803370BDE8F081DFF83880A5F12802121B04F128012C1B4144A4B208F1280027
:2048400009F0D8F9A4F12803191200223C8088F8053088F804103270BDE8F081D4260020AA
:20486000A8290020BC290020F0B50746DFF888C01E4EBCF800500135ADB2B5F5FA4F15D252
:204880006CBAA4B21A4A96461346188A2033A042F1D0B342F9D1ACF800500023108A2032A9
:2048A00040B101330A2BF9D10020F0BD4FF480551024E7E75E010EEB06052C8269820C4B9A
:2048C00067B12C4638687968BA68FB680FC4094BB6441B7928468EF81430F0BD05F10802AE
:2048E0009F516F6042F8047B1760F0E724320020E43000203C280020BC260020074A00234E
:2049000032F8021F814203D00133142BF8D17047034A002122F81310704700BFB63000209C
:20492000B83000202DE9F04FC44F042887B03D6829D0C34ADFF828B3DFF828C30328CBF897
:204940000020CCF800202CD0022800F09880052800F0598112F83C3CA2F13C0403F0F003F3
:20496000602B00F0E280DFF80093B64EB64BDFF8FCA2002232801A708AF8002089F80020D5
:2049800007B0BDE8F08FDFF8E092AE4EDFF8E082B8F80030002B40F06D81AB4BDFF8CCA25A
:2049A000E7E795F8251001F00F01032900F0F1800229D8D1A2F13C04DFF8AC92A14E04F139
:2049C000180840234FF0020E04270020602284F8351084F83CE084F83D7084F83E0084F880
:2049E0003F30338084F834202B7D984F84F830306B7D84F83130AB7D84F83230EB7D84F8AB
:204A000033302B7E84F82C306B7E84F82D30AB7E84F82E30EB7E84F82F302B8A23856B8A57
:204A2000638595E80F0088E80F0007F1080007F11801FFF749FA95F8253003F0100303F05E
:204A4000FF02002B40F05581402387F8362087F8373033887E4A283B1579062100221E1219
:204A6000084663712671E571A17184F83B2084F83A202287FFF7C4FDC04320872AE1754896
:204A8000704EC278704B0132DFF8E4810021D2B2C27031801970A8F8001062B982780132EB
:204AA000D2B282703AB942780132D2B2427012B902780132027095F8251001F0FD02052A9F
:204AC00000F09380002900F09980AA8B002A00F0208395F82620501E85F82600002A40F071
:204AE0008D8095F82720082A00F05E83481E012840F25783042A9CBF0320904001F00F01BA
:204B000094BFC0B2302001324C1E85F8272085F82600072C72D8DFE814F00F01000116010C
:204B2000060171000601710006012379454E61791B0230885D18854200F3E180207A28311D
:204B40000B44FF28338000F0DA80434D3E4BDFF81CA1A0790021363A2A6019708AF80010E6
:204B6000002840F01B8101220193CDF800C08AF80020FFF771FD0128DDF800C0019B00F0B5
:204B80006E81C0F00181022840F00881DFF8D890A5E0AB8B002B7FF4E6AEDFF8CC90082387
:204BA000CDF800C089F80030264E02F04DFCDFF8C080DDF800C099F8002002F0200303F0AB
:204BC000FF01002B00F0B682204C0023142285F82530A8F8003084F8352004F118083C23D6
:204BE0003380502384F83430FEE695F826200132D2B2782A85F8262000F08780DFF8689016
:204C0000DFF868A0B5E6154B1B681B8A002B3FF4AAAEDFF85C800B4EDFF84C9000230C3AB4
:204C20000821CBF80020CCF80020A8F800303B60338089F8001002F007FCA9E6CC2E002037
:204C4000F8290020A8290020D4260020BC2900203C2800205C0F0020C02E0020C42E0020D4
:204C6000C82E0020AC290020BC2E0020D5260020E0300020AC4AAD4C126803F1080149BA6B
:204C8000002092F814E0A185E085118A303321859BB2508AA3F128010D12112784F807E0A9
:204CA0002571608533806171A77104F118050FCA85E80F00294604F10800FFF705F99C4B2E
:204CC00004F13C0238461A60FFF79AFCC04380B258B1E0850023602222706370638000236A
:204CE00089F8003007B0BDE8F08F4FF6FF73E385F0E7002387F8373087F83630A9E6DFF8DE
:204D000038928C4BDFF834A233E6002285F82520DFF82492DFF824A22BE6844CDFF81892BC
:204D200004F118084DE6814CDFF80C9204F11808112384F8353052E77C4CDFF8FC9104F165
:204D4000180812213DE6DFF8F0910423CDF800C089F8003002F078FBB8F80030DDF800C04E
:204D6000DCF80020CBF80020002B00F0F881AB8B002B00F0F4816D4C18223C33338084F871
:204D8000352004EB02082CE71A7802F1280121444878083202EBC00229601A70DFF8A081EB
:204DA00001934046CDF800C0FEF76EFFDDF800C0019B002800F02A822A68DFF880911078FB
:204DC0003C2800F29E81DFE810F090019C019C019C019C019C0112019C019C019C019C016E
:204DE0009C019C019C019C019C019C01BD009C019C019C019C019C019C019C019C019C01C3
:204E00009C019C019C019C019C019C019C019C019C019C019C019C019C019C019C019C01C2
:204E20008D004A009C019C019C019C019C019C019C019C019C019C019C019C019C016A0038
:204E40004A004D000193CDF800C0FFF7D9FB4FF6FF729042DDF800C0019B00F08080DFF858
:204E6000D89086E59AF80000810740F1AE81410600F1478140F0400089F800000193CDF89B
:204E800000C0FFF7E9FB0128DDF800C0019BE6D0C0F0A08102283FF479AE2A688FE73A20B1
:204EA0000093FFF7ADFB4FF6FF729042009BD6D11A7800932832A05C02F01EF9009B1D4D6E
:204EC0001A782832A1184978A05C07F063FB0128009B00F0C1823288DFF85C90002A3FF44A
:204EE00048ADFCE69AF8000000F0040E0EF0FF010091BEF1000F40F0048140F004021146B8
:204F000093F800E089F800100EF128022244D078002840F0A58250780EF1080E05490EEB1B
:204F2000C00008702A604AE7C42E0020BC290020C82E0020D4260020BC2E0020D526002012
:204F4000D42900208DE80810FFF75EFC9DE80810E28D1120A071A54D002A7FF473AFB5F8AB
:204F60002A80B8F1000F3FF47AAFDFF89492A04B9F4DC9F80030248D05F5A07A05E02035AF
:204F80005545C9F8005000F0A0812B8A002BF6D09845F4D16B8A974810220BB1A342EED1A7
:204FA0002B682BB96B681BB9AB680BB9EB6843B12946CDF800C008F075FDDDF800C000289A
:204FC000DDD133888C49DFF83C92DFF830820022303B02203380CBF80010CCF8001089F8DB
:204FE0000000A8F800203A6002F02EFAD0E48DE80810FFF709FC06221046A271FFF700FB7F
:205000009DE808104FF6FF72904278497FF427AF4A8D0092002A3FF422AF0A8D0192002A76
:205020003FF41DAFDFF8E091CDF810A009F5F075A24603934C4603E03034AC4200F04B8150
:2050400094F825300293002BF6D0228A009B9A42F2D1628A019B9A42EED166482146102299
:20506000CDF814C008F01EFDDDF814C00028E3D122460094544694F835E0DFF888911EF0CA
:20508000040F3A601546039BDDF810A089F80000564A40F06A8392F8341032880909283AAB
:2050A000A2EB8101029A89B202F00F02022A318000F06C83012A00F0638319B91EF0030F58
:2050C00000F06E820098A18D808A814200F061821EF0020F05D0012A3FF433AE022A00F03B
:2050E0008182102384F8353079E59AF800000193C307CDF800C004D440F0010089F800003C
:20510000BFE6121B0420012107F068FADFF8F490E5E501F00F0103297FF470ADDFF8E490F1
:205120000823CDF800C089F8003002F08DF9DDF800C040E502F0100303F0FF00EBB12B4CD2
:2051400001200422112385F82710A8F80010A88385F8252004F1180884F835303FE599F8D8
:20516000003098077FF519AC204C10223C2384F8352004F11808338033E5B8F800301F4931
:205180005BB1D40740F19A80A883EA8B934288BFA8F80020B8F80030AB83002285F827206D
:2051A000DEE5052A7FF4A6AC0023DFF8589085F825300E4C802389F8003002F045F914236F
:2051C00084F8353004F1180809E540F0020089F8000053E6187800F12802224492F801E083
:2051E000083000EBCE002A601870E8E5BC290020E4300020C4290020EC290020E030002034
:20520000C42E0020BC2E0020D02E002040460193CDF800C0FEF7EEFDDDF800C0019B00287C
:205220007FF4CAAD217EA8F11808FF2900F0D78048F2FE00B8F81820824200F0D080B8F8E9
:205240000820824200F0D180AAB9B8F80A2092B9B8F80C207AB9B8F80E2062B9B8F81020B1
:205260004AB9618A39B9B8F8141021B9B8F81620002A3FF4F4AD218BA44A81B9518B71B9E2
:20528000918B61B9D18B51B9118C41B9518C31B9918C21B9D28CB2F5807F3FF4E0AD33889E
:2052A000B3F5A06F00F29982E379984A012B40F28B82013BD371DFF86C9210E5AA8B002AD8
:2052C0003FF463AF13460A8067E701200421002207F084F95AE4544694F83520039B02F033
:2052E0003F02022ADDF810A053D0DFF8389294F83510864A48073FF53CAB92F82F0092F8AA
:2053000033C092F832A092F82E1092F82D3092F831E092F82C5092F830700130C0B24FF0E2
:20532000140B82F82FC082F82EA04FF03C0C4FF0500A82F8330082F8321082F8313082F8BF
:205340002DE082F8305082F82C7082F835B0A6F800C082F834A060B90131C9B282F83210A3
:2053600039B90133DBB282F8313013B96B1C82F83030228D638D664D6285238595E80F0005
:2053800088E80F00284605F11001FEF79DFDFFF760BB6049002201E0142AA6D031F81200DE
:2053A000009D0132A842F7D1002529465A4A05E001310A2902F1300200F0D38092F82500D2
:2053C000002856D00728F3D1002D00F0CD8092F826E095F82600864588BF1546E8E748F269
:2053E000FE02208990427FF43AAD2089474A78B9508968B9908958B9D08948B9108A38B964
:20540000508A28B9908A18B9D28A002A3FF427AD208B3E4A80B9508B70B9908B60B9D08B5A
:2054200050B9108C40B9508C30B9908C20B9D28CB2F5807F3FF413ADFF293FF410AD374886
:205440000093FEF703FC0246002800F08280DFF8D490009BFFF78DBA002232802A703AE5C3
:2054600000990EF12A02042007F0B8F8DFF8B49035E4302505FB01953D60BDF80070284A4A
:205480002F82BDF8047092F800B0507891786F82D27894F82F701E4B94F82EC094F82C9096
:2054A00094F82DA04FF0010E009785F818B003276876A976EA764FF0000B0FCB85E80F0042
:2054C000042385F825E0A5F81CE085F816C085F8149085F815A085F8267085F8247085F843
:2054E00022B085F823309DF800307046EB7585F827B0FFF741F994F8342002F0F003502B6B
:2055000023D91209053A5B46920015E0BC290020C4290020B8300020D02E0020D4290020B8
:205520005C0F0020BC2E002002281FD097F83D1059B10B449A4208DDE11891F83C000F46B4
:2055400018B10128F0D10133F4E7DFF81C93FFF7F8BB0120022107F041F8DFF80C93FFF77A
:20556000BEBB002D88D17AE4154621E791F83D000428DBD191F83E2091F83F30DFF8E8929D
:2055800043EA0223402B28BF4023EB832B84FFF7D8BBB349C88D0099C98A88427FF498AD9F
:2055A0001EF0100F02D0009A918BF9B9009A92F825E00EF00F02013A072A3FF6DAA901A186
:2055C00051F822F0FB580000995700000D5800002B570000F7560000DB560000E350000095
:2055E000B75600004EF00201FFF7EBB902F118000393CDF804C0FFF793F89A4A94F8300078
:205600001378974983420293DDF804C0039BCDD1507891F831E003907045C7D191F83200F3
:2056200092F802E08645C1D1D27891F8331001928A42BBD10098014690F827209DF8080055
:2056400004929DF80C2008764A769DF8042081F81AE0CA76049A12BB91F8260091F8242062
:2056600091F82210121AA2EBD102D2B211445FFA81FE0099D0B281F822E0010644BF5242FE
:20568000D0B2009A92F82320A2EB92020244D2B2009802EBDE0180F8241080F823200099D2
:2056A0004FF0010E91F82400002281F8260089F800E08A837AE799F800106B4AC9077FF5C5
:2056C00058A90193009B0020102183F82500117001F0BAFE019BFFF74CB999F80020D1075F
:2056E0007FF547A9009C0721002284F8251084F82620FFF73EB930885C4F002840F075814F
:2057000094F83520D2077FF534A9009F0722002387F82630012087F82520FFF72DF810238B
:2057200089F8003001F090FEDBE4308818B10193FFF722F8019B94F8352012F0010259D0AA
:2057400099F80030DF0750D500980023072280F8252080F8263083830120FFF70DF81023B9
:2057600089F8003001F070FEBBE4202285F82500019389F8002001F067FE019BFFF7F9B8C8
:205780000EF03F0002287FF498AC09E70EF03F0012287FF492AC03E799F80020D00707D585
:2057A00094F835202E4902F03F02122A00F0BE802022009389F8002001F046FE3A68002186
:2057C00082F82510009B92E500210A46032006F005FFDFF89490FFF782BA022000214FF4C7
:2057E000A06206F0FBFEFFF7D1B9009A062382F82530B1E799F80010C80740F10681009C4A
:205800000521A28384F82510FFF7B3B894F83520D1072DD51EF0100F2AD1009A928B002A67
:205820007FF4A7A83088013080B2FEF7A5FF99F80030318843F0100289F800200A4A11B17C
:2058400043F01203137001F0FFFD009F012108220023B98387F8252087F82730FFF768BA94
:20586000BC290020B0290020BC2E0020A829002092060DD594F83A7094F83B20DBF80010B5
:20588000308842EA07221144821ACBF800103280308880B11EF0100F0DD199F8002002934B
:2058A00042F00202CDF804C089F80020FEF764FF029BDDF804C094F8360094F837200099BC
:2058C00002EB0022098C92B28A4202D8002A18BF114699F8002000989707C1833FF449A893
:2058E000DFF838810023CDF800C0A8F8003001F0ABFDDDF800C0FFF75EB999F80010464A34
:20590000CF072DD5009F308803244021002387F825401170BB830028E2D04223CDF800C046
:205920001370FEF729FFDDF800C0D9E791F8342002F0F00150292CD9110905398900002231
:20594000A01890F83C7086461FB3012F4BD0022F0FD09EF83D00E0B102449142F0DC18E021
:2059600094F8352002F03F02022A7FF402A8FFF7E8B990F83D70042FEBD190F83E1090F8B1
:205980003F20009842EA0122402A28BF4022C283028494F82D700293009B94F82CE05F757E
:2059A0001F4694F82E1094F82F40032283F814E0997583F825200120DC75CDF804C0DFF889
:2059C0005C80FEF7D9FE0022029B4221BA83A8F8002032801A7089F8001001F035FDDDF83B
:2059E00004C0FFF7E8B80132B7E70193FEF7C4FE94F83520019B12F0010F7FF486AE3A8839
:205A0000002A7FF46EABFEF7B4BF3288002A7FF468ABFEF7AEBF00BFBC2E0020E0300020A3
:205A2000030C80B2020A5BBA9BB242EA002043EA0040704750B110B5044601F0A5FF044B53
:205A40002146BDE81040186804F0E6BD704700BF2401002008B505F049F8034B034918680B
:205A6000BDE8084004F0BCBC24010020355A0000F8B50C4A05461E461068079B9DF8182060
:205A800004F01EFD044650B12F686968AA68EB68076041608260C360467401F075FF20464D
:205AA000F8BD00BF24010020024B0146186804F0DDBD00BF2401002070B505460C4E306825
:205AC00004F0D6FC8DB1044630B90EE02146306804F09CFC044640B120462946102207F0DD
:205AE000E1FF0028F2D1204670BD002070BD00BF24010020024B0146186804F073BD00BF00
:205B00002401002008B5FFF7D7FF30B1034B01461868BDE8084004F0A9BD08BD2401002070
:205B200070B5054610200C4604F0FAFE0849064604F018FF00B170BD30462946224604F0C0
:205B400049FF304629462246BDE8704001F0ECBEB4EB00002DE9F04F9B4C85B0E3799B4D6C
:205B6000FF2B06D09A4F00233B802B7005B0BDE8F08F2B7803F12C0020440279FF2AF1D05E
:205B8000E21892F82920924F002AECD13988DFF84C92904E40334FF0140E9942C9F800208C
:205BA00086F800E072DD23445A78A046002ADAD01A78012A32D12289C9F8003062B9B8F81E
:205BC0000A204AB9B8F80C2032B9B8F80E201AB9B8F81020002A4BD053F8020F02AA596832
:205BE000DFF8FCA103C27C48FFF766FF0246CAF80000002833D0FFF757FF83460028B2D059
:205C0000D9F8000059460230082207F04BFFD0B9DAF800305A7C0AB902225A742978337815
:205C20002C31CA1822445278B7F800E003EBC202D2B2531873453270634826DA43445A7867
:205C4000002AB5D18FE7584602A9012204F024FD002888D0DAF8003002225A74DEE705233C
:205C60000190009302A902235B48FFF701FFD5E7B8F81220002AAFD1B8F81420002AABD1C5
:205C8000B8F81620002AA7D16DE708440430FDF7FBFFDFF85081C8F8000000283FF463AFE5
:205CA0002289494B7AB95A896AB99A895AB9DA894AB91A8A3AB95A8A2AB99A8A1AB9DB8A16
:205CC000002B3FF450AF444E3046FDF7DDFF00287FF449AF40F2FF23228BA6F1080C9A4274
:205CE0000BD1738A4BB9B38A3BB9F38A2BB9338B1BB9738BB3F5807F54D0DFF8EC904846F9
:205D0000FDF7C2FFD8F80030864698427FF42BAF96E80F0089E80F002B78234430330FCB87
:205D200086E80F0000264FF0280C3A20FF218822E02384F8296084F8282084F82C3084F809
:205D400005C0A071E171668026715EF8020FDFF89CC0DEF80410DEF80820DEF80C30DFF833
:205D600090E0ACE80F00DEF80000DEF8042002236021C4F84200CCF8062084F8403084F84A
:205D800041302E706670A4F84E6066852170A4F84A60A4F84C60FEF705FDC0435023608578
:205DA0003B80E3E6337FFF2BA7D196E80F0006F1100E8EE80F002B78D8F800E06344303387
:205DC0000FCB86E80F00ADE7BC290020D4260020A8290020D7260020C4290020CC100020A2
:205DE000C8100020D0100020D4290020EC290020B4290020014806F0EBBB00BF380100205F
:205E000008B5064801F066F9054B00220120FD21187099705A70DA7008BD00BF996800004C
:205E20003812002070B413780D7A83F002039D42044614D00B891BB94B89B3F57F4F2FD08C
:205E40001E4A51F8085F13684E68012003F10801A0405E601D601160C0B270BC7047487A38
:205E600053789842E6D1887A93789842E2D1C87AD3789842DED1087B13799842DAD1487BBF
:205E800053799842D6D1887B93799842D2D1D379CA7B9A42CED1032303FA04F0C0B2DCE7D1
:205EA0008B89FE2BCCD1054DC9892A68022322F8021B03FA04F02A60C0B2CEE7DC100020C8
:205EC00010B5114C0220A17904F010FDA379112B0FD0062B0DD03A2B05BF94F8281094F8A5
:205EE0002930002143EA01210120BDE8104004F0FDBC238D618D01209942A8BF1946BDE811
:205F0000104004F0F3BC00BFBC29002010B5084C2378012B01D0002010BD01460822A01CFF
:205F200007F0C0FD00280CBF2046002010BD00BF3812002008B50146102004F0E5FC044BE6
:205F400004489B6800219847BDE80840FBF7D6BB48ED0000595F000010B50C4611462046C1
:205F6000FFF7DEFD044B1B6813B19B6820469847024B1C6010BD00BF9C17002048120020D0
:205F80002DE9F041154D07462A4600239078713230B101330C2BF9D14FF0FF30BDE8F08133
:205FA000C3EBC30403EB04142E19717004F006FCDFF830800A4A98F800301168C01A2F55D6
:205FC000B070CC1804F0FAFB98F800202146821AF01C07F099FDB078BDE8F0814C120020CC
:205FE00044120020D92600202DE9F04F074683B082BB5F4E894636F8063C15469346FF24B7
:206000004FF0FF38DFF874A1B3BBB8F1FF3F4CD0012D06F1AC062AD1B8F1FF3F22D0AC2036
:2060200000FB08F5DFF84C810F2008EB0506A6F80690B78004F074FC0146304604F08EFC8D
:20604000304640210C30FDF773FC234658B203B0BDE8F08F474D00262C46A388BB422CD030
:20606000AC3436B3FF2358B203B0BDE8F08F36F8063C0125002BC8D03046FDF76DFC68B10F
:206080003D4B26F806BCE9B29A7822B11A788A4208BF83F802B071335345F5D1B8F1FF3FDD
:2060A000B6D136F8063C002BB2D1ECB24FFA84F8AEE7A3880126BB42D2D1E388002BCFD01C
:2060C0000F20019204F02CFC0146204604F04AFC019A0028C4D0F4B211462046FFF750FFFC
:2060E0000028019A0CDB0028BCDDAC2303FB0656234632891044308158B203B0BDE8F08F02
:206100004FF0000BDA461A4FDFF870904FF0AC0837F8063CEBB156451BD038460192FDF74A
:206120001BFC019AA8B15FFA8AF008FB005100239E469C46CB80104B997831B11978814257
:2061400004BF83F802C00EF1010E71334B45F3D1F344AC37BAF1000F07D0BBF1000F81D082
:2061600011462046FFF70CFFBDE74FF0010ACFE7EC100020E01000204C1200209817002044
:206180002DE9F04715090F2D07469A4602F00F043FD00F2C34D0A146A84666195DBB0F2E2F
:2061A00003DD5CB9E5B9BDE8F08707EB0800C6F11002002107F082FD002CF3D0DFF874801C
:2061C000C9F11000D8F8006038443146224607F09BFC022C26D03444C8F80040BDE8F08724
:2061E00038465146BDE8F047FDF7E8BE454620264FF010094C462A46384607F085FCCEE73E
:20620000A84605F11006002DF2D14FF010094C46D4E70F2C4FF01008E8D042464546A146AB
:20622000A618E9E70A2DD6D8FF22FE23FA723B73D1E700BFDC1000202DE9F04F0F2089B04F
:20624000DFF8F482B24D04F06BFB002704F020FC88F800702F7004F09DFAAE4E3060042097
:2062600004F04CFB3368DFF8D4E21C785A7804F0F80100B2C029CEF8000042EA042274D071
:20628000E02963D1297893F8049093F802E0D878C2F30A044B1D4A46214640EA0E202B702F
:2062A000FFF7A2FEB0F1FF3F83465BD09A4AAC2303FB0023B3F808A00123A245009734BFB9
:2062C0004FF0000A4FF0010A019304F077FA2B788F4D834246D804F071FA2B7898F80080BE
:2062E000C51A08EBC9098D4AA944B9F1800F156038D837B1316807EB080019442A4607F039
:2063000003FC002C78D0009B53B183494FFA8BF3AC2000FB031305EB080292B21A819A8206
:20632000BAF1000F40F00E81019BDBB97C4B45441D807C4C236823B1FFF7C2FD23685B689D
:20634000984700F0EDFE09B0BDE8F08FBB4600973C46754F2A78995C01F0E000602854D0B4
:2063600041291DD009B0BDE8F08F297893F802E0D878C2F30A040B1D3A46214640EA0E2061
:206380002B70FFF731FEB0F1FF3F8346EAD0624FAC2303FB00770122336816370092D9E789
:2063A0003946501CC0B2034403F12000D3F800A0D3F80490D3F808C0D3F80CE01033834209
:2063C000C1F800A0C1F80490C1F808C0C1F80CE001F11001EAD118685B6808604B6098F84D
:2063E00000302932283388F80030009B4FF0000A2A70D146019368E7019B002B96D0BAF1B7
:20640000000FAFD0464B1C8093E7981890F801900232DFF82CA14FFA89FC1344BCF1000FC5
:20642000CAF80030BCBF0133CAF80030CA064AD501F0080303F0FF0E002B40F0B181DAF87F
:2064400000301A461B78C3F3830343F060033B7012F8010BA7F802E0830803F0300343EA27
:206460008013CAF800207B7001F0040303F0FF02019233B9DAF8003013F8012BBA71CAF82B
:20648000003011F0030100F09880284B5B5CFB7119F0400FC9F3011300F06381BCF1000F71
:2064A000C0F29A810022002B00F08F8020490878012800F0B7811F4A00239A4699461360CB
:2064C000009B019301E70B0700F17081DAF800301A4633F8010F9B78A7F80100FB70787806
:2064E00012F804EB00F00F00019202464FEA9E0303F0300040EA8E10104303F00F03019A11
:2065000043F06003CAF800203B707870ACE700BFD926002044120020E010002098170020AA
:20652000A82900209C170020BC2900204CEB000038120020D4100020D8260020D8100020C7
:20654000DC1000204FFA8BF9AC2101FB09F1DFF834A3C2480AEB010319469A8A1C81163187
:20656000BF4E07F0D1FABD4B06F24C5716F8012C22B116F8031C894500F03C817136BE424C
:20658000F4D100221046AC235FFA89F903FB09AAB44B5FFA8BFCAAF8062003F24C519A7818
:2065A0001AB11A78624508BF987071338B42F6D1019B002B3FF4BAAE24E7DAF8003013F856
:2065C000012BFA71CAF8003062E707F1080204920593A54A0F20D25CCDF80CC0029204F054
:2065E0009FF905990346029A0498FFF7C9FDDDF80CC009F0080303F0FF0209F0030E002B5A
:2066000036D019F0040F11D1984A0EF1FF331288012BADF81C2040F21881954B07F1180001
:2066200013F80E2007A90023FFF7AAFD98F8002002F1280388F80030019B002B3BD1DAF88E
:2066400000303268DFF840929B1A2B70002C00F09A80A4F128031A127B713A71BB79112B4E
:2066600000F0C080009B4FF0000AD14601932CE619F0040F00F0C880BCF1000FC0F2DE8029
:206680007C490B78012B7FF416AF4B7893427FF412AF794A744B102013F80E901160029123
:2066A00004F03EF9029903464A46023107F11800FFF766FDBAE7DAF80030197801F0F80181
:2066C000F029BED11121B971187800F0F301F03900F00400C0B20329C4D8DFE801F0382FCC
:2066E0002002597802330909A1F5756189B2090241F0F001398513F8011C01F00F01A1F50F
:20670000756189B2090241F0F0017985CAF80030002800F0BB80303288F8002091E75978AD
:206720000433A1F5805189B2090241F0F001398533F8021CCAF800307985E9E7B3F80110D0
:206740000433398513F8011CA1F58051D9E7B3F801100533398533F8021CCAF8003079850A
:20676000D6E7464A0F20D25CCDF80CC0029204F0D7F8029A0346424907F10800FFF700FD24
:20678000DDF80CC035E704F019F899F8002098F80030801A0344283B1A127B713A715DE77B
:2067A000002360223A707B707B805DE6DAF80020602310463B7010F8013B03324FEA930E98
:2067C0000EF0300E03F00F034EEA03037B700388CAF800207B8047E62A7831680A44927827
:2067E000120960E6BB884FF0000ABB85009BD14601936AE516F8020C314603EBC000009303
:2068000007F082F9009BB9E61C4B102013F80E9004F086F84A460346194907F11800FFF7D9
:20682000AFFC03E7487890427FF445AE124A881C116007F1080205900492CAE632682B7840
:2068400013449A7802F00F021AE7DAF8003013F8012B8DF81D20CAF80030DEE6BC29002015
:206860004F1200204C12002068EB000048EB000064EB000038120020D410002050EB00009B
:2068800054EB0000E0100020D926002033F8021BF985CAF800303EE72DE9F04FB14EDFF882
:2068A000F4A2002387B033708AF80030054603F0B5FF03F06FFFAC4BAC4C1B6820600BB192
:2068C000FFF7FEFA05AB0193002D00F0A6822946184604F043F8A64B1B883E2B36D99AF8A7
:2068E0000070D4F8008000230237A24D08F80730A14808F102032B60FFF708FB002800F0D7
:206900000F8108F103032B604FF08009DFF870B29BF801209BF80010130943EA0113DBB25B
