:020000040000FA
:2000000000500020E9000000E1000000C9000000E5000000E5000000E5000000000000002E
:20002000000000000000000000000000E5000000E500000000000000E5000000E50000002C
:20004000E5000000E5000000A51E0000E500000021110000A1150000E5000000E50000007C
:20006000E5000000CD1E0000E5000000E5000000E5000000E5000000E5000000E500000052
:20008000E5000000E5000000E5000000E5000000E5000000E5000000E5000000E500000038
:2000A000E5000000E5000000E5000000E5000000E5000000E5000000E5000000E500000018
:2000C000E500000015210000044B1A68B2F5806F03D01B689B0500D4FEE7704728ED00E043
:2000E000FEE700BFFEE700BF08B506F047FD104A104B9A420DD2D0430F4918440B4620F029
:2001000003000430084453F8041B834242F8041BF9D10A480A494FF000028842B8BF40F8AB
:20012000042BFADB00F03CF8FFF7CEFF08BD00BF000000203103002088E300003803002016
:200140001F2D002038B5038804464BB11E2B03D1882919D0012038BD00230380032038BDEA
:200160004FF4A0610A4802F09FFE0A4D0A4B012018606B6998472B699847084801F072F844
:200180001E232380012038BD014802F0ABFEF7E76003002070E0000024230020ACD10000EC
:2001A000F0B5524C85B02368514801215B689847236801210A461B684D48984707F00CF9EF
:2001C00001F082FB01F05AFB00F0F2F8494801F049F8494C494801F045F8494801F042F8BE
:2001E00000F056F92388002701339BB21846238000F036F92188434801F0D2FF07F0F0F878
:2002000000F000FF00F066FE03F01AF800F0EEFF02F044FF41F2342001F092FE01F08CF906
:2002200003F0B6F80021384802F0DEFF02F0ECFC02F082FD354801F0B3FF354B354D1868C0
:2002400001F010F8344801F0ABFF344B186801F009F8334801F0A4FF324B186801F002F8A6
:2002600007F06AFF082102A8019701F033F89DF80F309DF80E402C4A43EA0424BDF80E3022
:200280002046138000F0E6F8284B2948198801F087FFEE6A4AF6CD310220B0472146032062
:2002A000B04708210120B047082202A96B6B0B209847AB6A01A90120984708211D4801F013
:2002C0006FFF39461C4802F08FFF1C4802F046FC00F09AFF02F0FCFE044600F0ADFF14F056
:2002E000FF0FF7D101F090F9F4E700BFD801001000400340CCD100005C210020E4D10000B9
:2003000000D2000014D20000AC00002028D2000080DE0000D0D3000030D2000070E000000C
:2003200038D20000C8DE0000FC2200203021002040D2000050D2000024000020A4D1000071
:2003400010B5064C042023685B699847236804205B6B98470128F9D110BD00BFB801001098
:2003600010B5064B1C6844B90121054A196013681120DB6B9847034B1C7010BD70030020F1
:20038000B401001011200240044B0549002208701A70C20744BF01221A70704711200240C1
:2003A0003E210020014BC0B2187070471D200240F0B59BB007F010F80746FFF7C1FF1E4BE7
:2003C0004FF4A0601B68DB6998471C4B01211C4A196013689907FCD51A4801F043FA6822C6
:2003E000684619490CF088FD009C621C0FD06D46164E336820469B6B9847336820469B6971
:200400004FF40051984755F8044F631CF1D10FB906F0E6FF0D4C0E202368DB6B98470C4B57
:2004200000221A7002F0C6FF23681D20DB6B1BB0BDE8F040184700BFB80100102820086014
:20044000282008401000002060D20000B40100100E200240014B1880704700BF30210020AA
:20046000034600B5002283B0014608488DF804308DF8052001F094FE01A84FF4F03102227B
:2004800008F0D6FE03B05DF804FB00BF68D3000000B583B001A94FF4F030022208F0AAFED6
:2004A0009DF80430044A19460448138001F078FE03B05DF804FB00BF5C21002090D30000BA
:2004C00038B50388044643B1222B0FD113480D4602F008FD08B1882D0CD010484FF4F0417E
:2004E00002F0E2FC22232380012038BD00230380032038BD0A4B01221A70002201320F2AE0
:2005000008D0002AC8BF0023F8DD00BF01339342FBD1F3E7024B00221A70DEE77403002097
:200520000E200240012070470120704708B501F071FA30B1044B5B88022B0CBF0120022034
:2005400008BD022008BD00BFA801002010B582B001F09CFC044601F05DFA08B902B010BD15
:20056000084801A901F05EFA0128F7D1638803F44063002BF2D1638803F44063002BF5D05F
:20058000ECE700BF0100010430B583B001F042FA184C88B900256580A37F16485BB2C3F58A
:2005A000FF6307339BB201A9238301F03BFA012809D0284603B030BD6388022B08BF0120CC
:2005C000E8D103B030BD00F01BFD6FF03F052D1A03E000F015FDC54203D563889BB2022BA7
:2005E000F7D1608880B2A0F10200B0FA80F04009E7E700BFA801002008B50346B32994BF98
:200600000A46B422024819460CF076FC002008BD9E03002070B50A4D00262C6803E0246852
:200620002B68A3420AD02379032BF8D1054802F0FBFD24682B680136A342F4D1304670BDFB
:200640009003002060000020F8B5124E35682B79032B02D000242046F8BD2C89023C002CBB
:200660000CDD8C4205F10A070EDD3957042089B207F038FD03207F2107F034FD2A68002316
:2006800032602B712046F8BD394622460CF034FCEBE700BF9803002010B582B001F0BAF917
:2006A000D0B10F4C6388022B16D101A90D4801F0B9F902E06388022B03D101F0ABF9002832
:2006C000F8D16088A0F55050043880B201288CBF0020012002B010BD012002B010BD00BF33
:2006E000A80100200100010410B5114B114C1A680A21237E84F82410928882B003F0F80375
:2007000043F00803204601A96283237601F08AF9012802D0002002B010BD204601F0D4F9DB
:20072000A0F10100B0FA80F0400902B010BD00BF48000020F001002000B583B00A4801A929
:2007400001F070F9012803D0002003B05DF804FB054801F0B9F9A0F10100B0FA80F0400937
:2007600003B05DF804FB00BFD801002008B5FFF7BBFF012801D0002008BDFFF7DDFF012873
:20078000F9D1FFF701FFC0B208BD00BF08B501F0CBFB012808D0FFF77FFF01F085FA01F059
:2007A000F1F8024B00225A80012008BDA80100202DE9F84F01F0B8FB012818D001F0B0F8AD
:2007C00001F028F978B901F025F90446002840F08E8001F091F9012805460BD001F064FAFE
:2007E0000020BDE8F88F574B5B88022BEBD10120BDE8F88F01F0CEFA53494FF4237253482A
:200800000CF07AFBDFF88CB15148DFF88C91DFF88CC1504F504E5149514B524A04704FF0E0
:20082000020A8BF800504FF003084FF0040E052406204D4D89F800A08CF8008087F800E0D1
:20084000347008701A602B684749002BFBD00020464A474BDFF84881086052F81CCC52F823
:2008600018EC52F8146C52F8105C52F80C4C52F8207C12E90300203343F8207C43F81CCC21
:2008800043F818EC43F8146C43F8105C43F80C4C43F8080C43F8041C434502F12002DCD130
:2008A000344B354ADFF8FCC0DFF8FCE0334934482D4C344F344E00251862C3F824C001201F
:2008C000C3F828E0DF621E632560116007F060F82E4806F0C1FF224613682349002BFBD0DD
:2008E00000230B6001F06EF901287FF477AF002001F072FA2648002103460E4602258424D8
:200900005A791E7102F0FC0265F383025A71DC808C3343508C31B1F50C7F1D4AF0D1C2F85F
:20092000A42101F015F8FFF7DFFE012802D00020BDE8F88FFFF700FF0128F8D1BDE8F84F07
:20094000FFF722BEA8010020BCDA00001C04002190030021AE030021AB0300218103002127
:20096000C0030021BD0500211C10044028D4000000C0002180C600210010044001010E0494
:200980006039536311161216546B0070F00100205404002079030021750300217703002130
:2009A000A0C600212010101A136F236E70B582B007287ED8DFE800F077047D7D207D235E1D
:2009C0000A2973D8574C4FF47A72208AE38902FB03F302FB00F2A3F5D32302F57F42FF3258
:2009E000A3F55A73504803EB2243A0FB0323CAB2C3F387139A4266D1002002B070BD4FF6C3
:200A0000FF744A4DAE88A64208BFFF2309D02A460023083290880133A042DBB2F9D1013B5E
:200A2000DBB255F83330414C99423FDB236899423CDC0191FFF78AFD4FF6FF739E42019939
:200A40006DD022461C460023083290880133A042DBB2F9D1013BDBB255F8332005EBC30091
:200A6000914203F1FF3357DD5A1CF5D1FFF77EFE0020C2E72E4B197000F0CCFFE0B12D4B0C
:200A80005B88022B08BF002516D1FFF705FE012814BF03240024FFF769FE012818BF0324AF
:200AA0004DBB2046A9E701292FD041B3022002B070BD012002B070BDFFF77AFE012829D08A
:200AC000032002B070BDC82303FB01F11A4801F5D32303F55A73A0FB0321184A890902FB76
:200AE00001331B04A0FB032315488AB29B092382E2810284C0E7FFF749FE20467DE70191D7
:200B0000FFF744FE0199084677E7FFF751FE0128D6D171E70546B8E70A4B1860A6E7FF2384
:200B20009AE700BFD80100201F85EB5148DD00002E030020A8010020D34D621018FCFFFFB9
:200B4000F00100204800002089B12DE9F0430C4683B0102800F29280DFE800F0121F9090D0
:200B60009090848A399090909066696D0B00022070474A4B00201B680B6003B0BDE8F08340
:200B800000F048FF30B1464B5888A0F10200B0FA80F0400920600020EFE742494FF47A72A6
:200BA000CB89098A02FB03F302FB01F2A3F5D32302F57F42FF32A3F55A733B4903EB2243B8
:200BC000A1FB0323C3F3871323600020D5E700F021FF002854D0324B5B88022B08BF4FF0B5
:200BE00000094DD140F203470A2580264FF000086B1E13F0FF0569460BD001A8CDF804802A
:200C0000ADF8047000F00EFF18B19DF802607306EED0B9F1000F39D176B216F1800F2660C0
:200C20000CBF03200020A8E700200860A5E70A230B600020A1E74FF6FF70184DAB888342B2
:200C400008BFFF2309D02A4600230832918801338142DBB2F9D1013BDBB255F83330002005
:200C600023608AE7114B00201B681B680B6084E70F4B002093F900300B607EE701207CE79E
:200C8000FFF796FD012804D18146ABE7FFF77EFDC2E76FF07F03236003206EE748DD000059
:200CA000A8010020D80100201F85EB51480000202E03002070B582B0044600F0ABFE38B3B4
:200CC000244B5B88022B08BF002621D12249221DA31C224C92B29BB2100A2382E1610A70D3
:200CE0004870FFF7D9FC0020014601F0AFF8204601A900F097FE90B90125002001F0BAF8AB
:200D000000236380FFF740FCEEB9284602B070BDFFF74EFD01281BD0012002B070BD00F062
:200D20008BFA638803F4406333B900F063FC638803F44063002BF8D0608880B2B0F5505592
:200D400018BF0125D9E7FFF721FD284602B070BD0646BBE7A80100209C03002018020020C5
:200D600010B50C46B32C014694BF2246B42204480CF0C2F82046BDE81040FFF79BBF00BF39
:200D80009E03002030B583B001F0CEF801281BD000F040FED0B1154B5B88022B1FD000257C
:200DA0008024134801A900F03DFE012803D19DF806406306F5D07DB90E4B64B293F9000028
:200DC000A042D4BF0020012003B030BDFFF7F0FC012806D10546E3E7FFF7D8FCECE7012008
:200DE000F2E7FFF7D3FC0120EEE700BF18020020010003042E03002008B500F00BFE58B14E
:200E0000064B5B88022B06D1FFF7BCFF10F1FF3018BF012008BD002008BD00BFA80100208F
:200E2000F8B51A4800F01EFD06F052FA012802D000242046F8BD49F69917154C0021204645
:200E40004FF40C720CF032F9124E134B13481449DFF858C0DFF858E04FF4D9720025CCF8BF
:200E6000004083E830008362C0F82CE00F82CA813284FFF79DFC01280446D9D1094801F06E
:200E80000BF82946084802F0AFF9D2E73400002054040020F001002090030020A8010020E4
:200EA000D8010020C8D3000060000020980300208403002010B5064C042023685B69984753
:200EC000236804205B6B98470128F9D110BD00BFB8010010F8B51A4A00200021C2E9000178
:200EE000184B04201B685B6B9847012801D0FFF7E1FF144B00201B68DB699847124B0121CF
:200F0000124A196013689B07FCD5114A11491368096823F4807323F001030F4C13600B680B
:200F200020460E49984740F221200D4D0D490E4B04273126012227602E6008601A60F8BD48
:200F400038030020B801001028200860282008400C000140C80100100000014000210004A1
:200F60003C000140080001400400244310B40949094C0B68226808688342FAD1DB010749AC
:200F800003EB52620023C1E900235DF8044BD1E900017047082009400C2009403803002068
:200FA00010B50B490B4C0B68226808688342FAD1DB01094903EB52620023C1E9002301F013
:200FC0009BFF00B910BDBDE8104001F067BF00BF082009400C2009403803002010B506F02A
:200FE000FBF9034B1C6808B906F0FAF9204610BD08200940704700BF0146012000F052B805
:2010000006F018BC2DE9F04106F0E6F91D4E1E4B1E4F32680124002580464FF480314FF4C8
:2010200080703D601C60186019601368284623219847336820461B68242198473368022045
:201040001B6825219847124A1249136843F4E02313600D6006F0EEFB0F4B1049104A1B682D
:2010600000F50070086014603C601B6914209847B8F1000F01D0BDE8F081BDE8F04106F091
:20108000AFB900BF8401001004200940000024430020094008200940B00100101C200940A0
:2010A000A0022443431E012B10B41BD9042802D05DF8044B704700231A4610F004001CBF27
:2010C0000E4C216013B10E4B0121196012B10D4B01221A600028EBD00B4B01221A605DF89A
:2010E000044B704710F0010302D0084A0123116010F00202E1D0064C2160DEE72020094057
:2011000080022443A0022443C0022443182009401C200940014B1868704700BF84060020C2
:2011200008B5FFF76DFF184B1860FFF739FF174B1B686BB9164B1B68E3B9164B1B6833B136
:201140001549164B00204FF4803208601A6008BD124B4FF480721A6006F06CFB00F2052094
:201160000F4B20F4FF7020F001001860084B1B68002BE2D00B49094B0020012208601A6089
:2011800002F07AF8D9E700BF84060020A000244380002443C0002443C00224430420094017
:2011A0001C20094080022443820702D5034B01221A60C30700D4704706F012B9000C08400C
:2011C00008B506F009F9074B1A68012A03BF0649022219600022002814BF104642F0010007
:2011E00008BD00BF000C084051E5CC1A03490448044B012208601A60704700BF0000084051
:20120000FFFF0F00000C084038B5FFF7D9FF064C064D0749074A012325600B601360BDE840
:201220003840FFF7C1BF00BF00000840FFFF0F000C0008400401004303490448044B012206
:2012400008601A60704700BF00000840FFFF0F000C00084010B50446C0B200F081F920463C
:2012600010BD00BF70B506460024451E04E015F8010F00F075F9013430460BF065FF8442BB
:20128000F5D30A2000F06CF900F07EF90128FBD0204670BD70B50446B0B10078C0B1A9B106
:2012A0000025661804E014F8010F38B1B44205D000F056F9631C05F10105F4D100F064F90B
:2012C0000128FBD0284670BD0546F7E70D46F5E70546F3E710B40B4B0B4C13F8012FFF2A2D
:2012E0000ED1A342F9D1094A39B11144013801390B78914200F8013FF9D15DF8044B7047A8
:20130000034AF1E7C7FF0100CFFF0100F0120050C8FF010038B50C4D02202B685B6998475A
:201320002B6802205B6B984701280446064BF7D11B684FF40070DB699847044B044A1C6055
:2013400013689B07FCD538BDB801001028200860282008402DE9F04340F2F275DFF8E08088
:2013600083B0FFF7D7FFD8F800302B4EDB682B48984733682A4C5B69152098472368DFF815
:20138000C490284F23F4FE63D9F8002023F0020323603D60D36B1B2098472349D9F800202C
:2013A0004FF0FF334FF0006008600093D2F840C01A481C211B22E047D8F800301748D3F82B
:2013C00004C01A494FF4E1326023E04740F2011240F2013E1649174B1420086019681648F4
:2013E00041F01001196003681449002B0CBF134673460B603D60036853B12368326843F093
:20140000500323601369152003B0BDE8F043184703B0BDE8F08300BFB001001000100040C0
:20142000381000404410004090200240006CDC02341000402C100040880600203010004026
:20144000D0010010B401001008B5064B02201B685B6B9847012803BF034B186800F00100E4
:20146000002008BDB80100106C20084038B50446FFF7EAFF18B1264A13681907FCD4032C01
:2014800003D0244B1B6803B138BDFFF7DDFFF0B9214D4FF400702B681B6A9847032C2CD020
:2014A0001E4B01211E4A196013689B07FCD51B2000F0F4F91C2000F0F1F94FF0FF3000F046
:2014C000EDF9BDE838404FF0FF3000F0E7B9154B15481B68DB689847144B15201B685B69CE
:2014E000984740F2F270124A1249136823F4FE6323F0020313600860CAE72B684FF40070E5
:201500009B6A98472B684FF400701B6B9847C7E71810004088060020B801001028200860FF
:2015200028200840D001001000100040B0010010381000404410004010B505F04DFF0446BD
:20154000054800F08FF9054B00221A6004B110BDBDE8104005F044BF4C0000208806002051
:2015600010B50446FFF770FF08B9FFF7F3FE044B2146BDE810401B680248DB69184700BF75
:20158000D00100100010004008B5FFF75DFF18B1024B1868C0F3C00008BD00BF1810004016
:2015A00038B5FFF7B7FE40F2F2710C4B0C4A1B68116013F0500F10D00A4C0B4D05E02B68F5
:2015C0001B699847094B1B6823B923680848DB06F5D538BDC0B29847F7E738BD40100040C6
:2015E0004410004018100040D00100108806002000100040034A136823F00403136030BFCC
:20160000704700BF10ED00E070B505F0E5FE01F0B5FD18B1BDE8704005F0E2BE814801F06A
:20162000E1FE0225044648B1636823B19847A84228BF2846C5B22468002CF5D1FFF7E0FCDD
:20164000794B04461B68002B40F08B8001F054FC002840F09280012D014600F0D680022DFE
:20166000D8D1002840F0C3802846611EFFF71AFD6C4801F0B7FE06250446002800F0B08015
:20168000A368022003B198472369246825EA0305002CF5D1FFF7D0FD6B0705F0060400F144
:2016A000A280002C40F0A78000F06CF9002007F07FFE5E495E4A0B685E4823F003030B60B0
:2016C0001368016843F00F0313608B6939209847594A5A4900231360184613600B6005F035
:2016E0009BFE062C00F08D80554C564D564E2B682368326823F0030323605368534803216C
:2017000098474C4B1B689B6B98472B6805F0DCFF4F4A3368002111604C485B68012198476A
:2017200023684C4A012143F00303236011602B6805F0FCFF07F008FEFFF732FCFFF77CFD26
:20174000384801F04FFE044628B1E36803B198472468002CF9D105F043FEBDE8704005F0C8
:201760003FBE3D4B1B681B1A022B34D4A3F28F23002BBFF66BAF01232EE001F0C5FB064687
:20178000FFF7F4FB361A002E7FF744AFFFF7C2FC324B00EB46211B1BCB423CD401208542BF
:2017A0007FF45DAF6FF007031B1BCB4230D404F58034631A31EA230128BF21460220FFF72B
:2017C00071FC274A136823F00403136030BFBDE8704005F005BE00239D4228BF1D4635E7BF
:2017E000FFF72AFD06241B4B00221A6059E72846FFF758FC3CE70F4B20461B689B6998475F
:2018000052E7022005F0F0FD6EE704F58031D5E704F10801D2E7022DC4D0012D7FF4FAAE0D
:20182000C0E700BF8C060020800224430010094008100940B8010010401009402004224302
:20184000242208402C200940D801001000400340800104430C4009401820094071FDFFFFAF
:2018600010ED00E00146014801F0BEBD8C0600200146014801F0FCBD8C06002010B50548DF
:2018800001F0ACFDBDE81040034B03201B6820211B6818478C06002084010010421C0ED01F
:2018A00010B50446064B4FF4C0421B6800211B689847044AA3001A430023136010BD704715
:2018C000B4010010001A444210B584B00022412302A80292039307F04BFD042005F094FF65
:2018E000032813D00420032105F05EFF042005F08BFF03280346F9D1074A084812680093B1
:20190000546800214FF040521C23A04702A807F085FD04B010BD00BFA401001000A00C40EF
:2019200000B583B00022412368468DE80C0007F01FFD012005F068FF012803D00320012139
:2019400005F032FF684607F069FD03B05DF804FB00B583B00022412368468DE80C0007F0BB
:2019600007FD012005F050FF012803D0044B986B05F07EFC684607F051FD03B05DF804FB47
:201980004800001010B582B04123684600240193009407F0EDFC0320214605F005FF012016
:2019A00005F032FF18B1044B986B05F061FC684607F034FD02B010BD4800001070B5038837
:2019C00004465BB140F22A22934203D182290AD0012070BD00230380032070BD40F22A2342
:2019E0002380012070BD094B094E1D69FFF724FC06F010FB06F0CAFA8021A847002880B20A
:201A0000ECDD06F0BDFAF3689847EFE7D0D3000070E00000024B186800F00100704700BF19
:201A20009C21084010F0030370B506460D4602D1028811051FD405F0CFFC1F4B00301B6894
:201A400018BF0120DB0720D51C4B1D4C1E6023684CF250322B6003E02368013A2B6014D07B
:201A600013F0FF0FF8D018B32878A0F10100B0FA80F0400970BD438005F0AEFC0E4B003015
:201A80001B6818BF0120DA0702D468B1002070BD338813F4405FD7D003F44063B3F5006FF5
:201AA00004BF084B1E60CFE705F09AFC002070BD05F096FCD8E700BF9C21084000100440A6
:201AC00004100440900600200A4A01E0013A0ED0438803F44063B3F5806FF7D1428802F426
:201AE0004062A2F58060B0FA80F0400970471046704700BF20A1070030B583B005F06CFCAA
:201B0000254C0546236819201B6A9847236812201B6A9847236819205B699847236812209C
:201B20005B6908349847236801205B699847236801205B6B98470128F9D11849184B194A0C
:201B40000860186013689B07FCD5134C164817492268002303600B60136919209847236800
:201B600012201B699847A5B140F2FF35104B114A11481249002405600C60114801A91A6038
:201B8000FFF750FFA0F10100B0FA80F0400903B030BD05F025FCE7E7B00100102C20084032
:201BA000282008602820084010100460141004600010044051000706000004601C10044053
:201BC0000100060440F60A0230B5164B87B01D680024012301A869460194049405950294B9
:201BE0000394ADF804208DF81130FFF71BFF012802D0204607B030BD0B4801E00138F9D074
:201C0000BDF8063003F44063B3F5806FF6D1BDF8060000F44060A0F58060B0FA80F04009BA
:201C200007B030BD9806002020A1070010B540F6090486B00023012201A869460193049373
:201C4000029303930593ADF804408DF81120FFF7E9FE012802D0C0B206B010BD0F4801E01D
:201C60000138F9D0BDF8063003F44063B3F5806FF6D1BDF8063003F44063B3F5806F02D091
:201C8000002006B010BD064B1A782AB9054A0599012011601870DFE70120DDE720A1070061
:201CA0003F2100209806002030B587B005F094FB2F4C0546236819205B699847236812205C
:201CC0005B6998472B4B1B68DA0715D540F60D04294A2A490023136002A80B60012201A9F8
:201CE0000293059303930493ADF808408DF81520FFF798FE01282CD0FFF798FF2048214BD1
:201D000000240121204A0460196013689B07FCD51E4C012023689B699847236801205B6BDD
:201D200098470228F9D1124C192023681B6A9847236812201B6A9847236819201B69984702
:201D4000236812201B6998470DB905F049FB07B030BD0F4A01E0013ACED0BDF80A3003F4C7
:201D60004063B3F5806FF6D1BDF80A30C4E700BFB00100109C210840101004601410046037
:201D80002C2008402820086028200840B801001020A1070008B505F0C3FA052803460BD01E
:201DA00003280DD018B101280FD0002008BD094B03221A60012008BD064A0120136008BDE3
:201DC000044B02221A60012008BD024A0521116008BD00BFD0210840F8B5164A164B1268A8
:201DE000002814BF00241C46D30700D4F8BD05F0F3FA0646114A1248124F134D00214FF0FB
:201E000000433B60046011602B6819201B6A98472B6812201B6A98472B6819201B69984787
:201E20002B6812201B69984706B1F8BDBDE8F84005F0D6BA9C210840000080801010046023
:201E40001410046018100460B00100100028064B14BF08220222002918BF00230348044958
:201E60001A4303600A607047000080801010046014100460034B0028034A18BF0023136045
:201E8000704700BF0000808014100460014B1868704700BF90060020014B1860704700BF12
:201EA0009406002008B5074B1B68DB0704D4FFF723FE012800D008BD034B6FF000421A60DE
:201EC00008BD00BF9C2108401010046008B5124B1B68D90707D41148FFF7C4F9FFF70CFE91
:201EE000012800D008BD05F077FA0D4B1A6812020BD40B4B1A6812F00A0F1CBF6FF00A02B8
:201F00001A60BDE8084005F06BBA6FF400021A60044801F089F9ECE79C21084078DD000075
:201F20001010046060000020014B1878704700BF4021002008B500F08BF880B208BD00BFE4
:201F400000F010B938B50C4D04202B685B6998472B6804205B6B984701280446064BF7D140
:201F60001B6840F20140DB699847044B044A1C6013689B07FCD538BDB801001028200860D3
:201F800028200840034B1B68002B14BF01200220704700BF9C060020F8B503880446002BBA
:201FA0002ED0B3F5847F05D1184B1B788B4205D00120F8BD002303800320F8BD144D2B68C2
:201FC00073B1144B144A1B6812685B680220174698470026301847F100012B6898472E605B
:201FE0000E4B40F201401B689B6A98470C4B01210C4A196013689B07FCD50B48FFF738FCFB
:202000004FF4847323800120F8BD00BF2F0300209C060020CC01001004800240B8010010CE
:2020200028200860282008407000002008B5064B04201B685B6B9847012803BF034B1868BD
:20204000C0F34000002008BDB80100103C20084070B5274B1B689BB1264C0023224612F8CE
:20206000011B29B90133042BF9D10020014670BD214A002502EBC302E55492E8030070BD7C
:20208000FFF7D4FF00282FD01C4A1D4B1268134073B91C4A01211346116018680028FCD1C2
:2020A00002464FF4807105F0C7F8174B01221A6005F092F90646114A1368DB07FCD5134B3E
:2020C000134A1B6814685B680220984723460022141843F1000516B12046294670BD05F032
:2020E0007FF92046294670BDFFF72CFFCCE700BF9C060020A006002040030020088002401E
:2021000001000080F09F0240A8025042CC0100100480024038B50E4D00240E4A2C601368C3
:202120000D4923F00103096813604B6931209847204622464FF4807105F07EF80122074B88
:202140002A6019782246BDE83840054801F020B8A80250420C800240B00100102F030020AC
:202160008400002010B5074C2378802B00D010BD00F08CFF207000210348BDE8104001F063
:2021800033B800BF2F030020840000200AB90020704708B508461146FFF77CF8002008BD54
:2021A0000FB400B583B004AB53F8041B04481A46019300F025F803B05DF804EB04B07047AC
:2021C00094000020102970B50C46054602D80AE0102C0BD92B686868084910229847103C5B
:2021E0000028F5D070BD08460029FBD022462B6868680249BDE87040184700BF24DE0000F8
:202200002DE9F04F82460F468FB007924FF0000B3B78002B00F0E880252B08BF3E461BD06E
:202220003C4602E0252B04D014466378621C002BF8D1974216460CD0D51B39462A46DAF8AD
:202240000030DAF804009847002840F079826378AB44002B00F0C88073780136002B00F0DC
:20226000C38019460025A1F12003102B1BD8DFE803F0171A1A141A1A1A1A1A1A1A111A0EAC
:202280001A1A090045F0100516F8011FEBE745F00105F9E745F00605F6E745F00805F3E763
:2022A00045F00205F0E7A1F13102082A0B46374600F2DC80A1F13002092A4FF000040AD8DC
:2022C00004EB840403EB440417F8013F303CA3F13002092AF4D92E2B00F0D1804FF0FF36C2
:2022E0006C2B00F03D81682B00F04281782B00F28180DFE813F079007F007F007F007F007E
:202300007F007F007F007F007F007F007F007F007F007F007F007F007F007F007F007F00CD
:202320007F007F007F007F007F007F007F007F007F007F007F007F007F007F007F007F00AD
:20234000BE027F007F007F007F007F007F007F007F007F007F007F007F007F007F007F004C
:202360007F007F007F007F007F007F007F007F007F007F007F007F00BB027F007F007F002F
:20238000B802B502B2027F007F007F007F007F007F007F007F007F007F007F007F007F00A5
:2023A0007F007F007F00AF027F007F007F007F007F007F007F007F00AC027F00A902A60277
:2023C000A302A0029D027F00A6027F007F007F007F009A0297027D007F007F0091027F0032
:2023E0008E027F007F00940258460FB0BDE8F08F45F4407505F4E063B3F5806F07F1010777
:2024000000F0CE804FD9B3F5C06F00F0A581B3F5E06F00F09A81B3F5A06F7FF4F9AE079BF4
:20242000012C1A6803F1040307938CBF04F1FF340024EB078DF8202000F1D08150462146CB
:20244000FFF7C0FE002840F07B81DAF80030DAF8040008A901229847002840F071810BF1A3
:20246000010C0CEB040505EB040BD1E62A2900F08C800B462E2B4FF000047FF42FAF7B7819
:20248000791CA3F13002092A7AD80F46002606EB860603EB460617F8013F303EA3F13002A7
:2024A000092AF4D91CE7B3F5807F00F0B080B3F5407F7FF4ADAE079BC34A1968C34815F4D9
:2024C000804F03F1040308BF9046079318BF80460A460023002900F094810DF133094846F5
:2024E000110941EA03714FEA131E02F00F0673460A4618F8061000F8011D52EA0301EFD16D
:20250000B9EB0006034600F07E810336B4424FF030024FF078014FF0230300F8022C8CBFAB
:20252000A41B0024EA0700F8011C00F8033CA0F1030800F1A18150462146FFF743FE002870
:2025400040F0FE804146DAF80030DAF8040032469847002840F0F4805E4406EB040B57E66C
:202560007B786C2B00F00481013745F06005BDE67B78682B00F09381013745F04005B5E610
:202580002A2B00F091810F46A8E6079B771C1C680433002C0793B8BF45F0010573789AE62E
:2025A000079BD3F8009004330793B9F1000F00F08F8299F80030002B00F0B2824B4613F8E7
:2025C000012F002AFBD1C9EB0308002E02DBB04528BFB04644458CBFC8EB04040024E90796
:2025E00000F1E08050462146FFF7ECFD002840F0A7804946DAF80030DAF804004246984761
:20260000002840F09D80D84408EB040B00E6002EABBF25F0100501230196019315F40053D4
:20262000049305F0E00300F0A880402B00F07F8200F24181002B00F02D82202B40F05A82E2
:20264000079B1A1D079293F90020D317002A73F10001C0F22A82CDE902230023059305F4F6
:20266000C053B3F5805F00F09281B3F5C05F00F0BF81B3F5006F00F067810DF136064FF05E
:202680000008019B41F20802984541F6080303EA050380F0338101999342C8EB010101916B
:2026A00000F0468141F6080201999342414400F031814FF000094A46049B73B1059B002B26
:2026C00040F0838105F00603022B00F01B824048062B04BF02464FF0010909EB01039C422B
:2026E0008CBFE41A002415F00103049306D1E80640F1F681019B2344049C0193B9F1000F70
:2027000007D01146DAF80030DAF804004A469847B0B9019B08EB0B05102B40F291819B46DC
:2027200003E0BBF1100F40F28E81DAF80030DAF80400284910229847ABF1100B0028F0D0B1
:202740004FF0FF300FB0BDE8F08F079B1A680433C2F800B007935BE5DAF80030DAF80400B1
:202760001D49012298470028EAD10BF1010B4FE5BB7845F080050237B8E5402B00F0C6816D
:2027800000F2A980002B00F09881202B40F02181079B049A05921A1D07921A780023CDE9BB
:2027A00002235CE74946DAF80030DAF80400424698470028C4D150462146D844FFF702FD18
:2027C00000283FF421AFBBE7F0DD0000DCDD000014DE000034DE000020DE0000DAF80030A2
:2027E000DAF8040008A9012298470028A8D1504621460BF10105FFF7E5FC00283FF433AE9D
:202800009EE70DF13303302203F8012C581E04267CE645F41065EDE545F48065EAE545F4DD
:20282000C855E7E545F48855E4E545F4E065E1E545F48135DEE545F40075DBE545F40245EC
:20284000D8E545F42455D5E545F4A065D2E545F4C135CFE545F4B245CCE545F4A135C9E5D9
:2028600045F48445C6E545F44245C3E545F4E135C0E545F4C065BDE54146DAF80030DAF8F4
:2028800004003246984700287FF45AAF504621465E44FFF797FC00283FF45FAE50E7BB783F
:2028A00045F02005023721E5079ABB78111D07911668023714E5602B00F0EC80802B40F073
:2028C0001981079B073323F0070303F108020792D3E90023BAE6602B00F0EF80802B78D171
:2028E000049B0593079B073323F0070303F108020792D3E90023CDE90223B0E6934200F0FC
:20290000EC800022019241F608020199934241447FF4CFAEDDE9022313433FF4CAAE874BB3
:2029200015F4804F864A4FF0020908BF1A46C3E60B46002908BF01230193019B4FF00009F8
:202940004A4603EB0801B7E6DDE9028942464B46134300F0E7800DF136031E460693404682
:2029600049460A22002309F0BFFF30324046494606F8012D00230A2209F0B6FF804689468D
:2029800058EA0903EBD1069BC6EB030879E6DDE90223134300F0C6800DF1360306939E4646
:2029A000DDE90223D00840EA4370DE0802F007013346024630310EF8011D52EA0301F1D14F
:2029C000069B7646CEEB03085BE64FF001095D4A83E605F4C053002200200021B3F5805F46
:2029E0000592CDE90201D2D0B3F5C05F40F08580DDE90201544A554B15F4804F14BF904661
:202A0000984602460B46134300F08C800DF1360306931E4602460B46110941EA03714FEA2E
:202A2000131E02F00F0073460A4618F8001006F8011D52EA0301EFD1069BC6EB030820E6BC
:202A4000019B9B464BB15A46DAF80030DAF804003F49984700287FF473AE31464246DAF891
:202A60000030DAF804004D44984700287FF468AE019B2B441E46049B002B3FF46EAD504612
:202A80002146FFF79FFB00287FF45AAE06EB040BFFF7BEBB079B1A6804330793002A4FEAD5
:202AA000E27373F10001BFF6D6AD524263EB4303CDE9022301230593D1E5049A079B0592D8
:202AC0001A680021104604330793CDE90201C6E5DFF884904FF0060877E5012301932CE769
:202AE000504621460292FFF76DFB029A00283FF405AE25E600220023ADE5DDF814800DF1F4
:202B00003606BEE5134A4FF00109E6E5079B049A05921A1D07921A880023CDE902239EE59B
:202B2000984652E54FF000080DF13606A9E5079B1A1D0792B3F90020D31787E508DE0000F7
:202B400004DE00000CDE0000DCDD0000F0DD000034DE000010DE000018DE000010B504461E
:202B6000006830B1002100F03FFB54F8040F0028F8D110BDF0B5038883B005465BB14A2B75
:202B800004D188291BD0012003B0F0BD00230380032003B0F0BD194800F024FC044630B17E
:202BA000201DA16800F080F92468002CF8D1144B01221A704A2301202B8003B0F0BD0F48E9
:202BC000019200F00FFC04460028F3D0019A031D9A4205D02468231D002CEBD09A42F9D16D
:202BE0000648214600F044FC064E6269A369376832600BB1E06998473760DBE7A40600208D
:202C000041210020B006002010B5064B002406481C7000F0E3FB2146BDE81040034800F0E3
:202C2000E3BA00BF41210020A40600209C00002070B504460D48049D0078A261E361656146
:202C400030B9A1600A482146BDE8704000F0CCBB084D094B2E68201D2B6000F025F92E6062
:202C60002146BDE87040024800F0BEBB41210020A4060020B00600209C00002010B5044CF2
:202C800082B024680094FFF7D3FF02B010BD00BFB006002070B5094B04461B783BB1084D6F
:202CA000084B2E6804302B6000F008F92E602146BDE87040044800F097BB00BF4121002062
:202CC000B00600209C000020A406002070B5094B04461B783BB1084D084B2E6804302B6059
:202CE00000F0F6F82E602146BDE87040044800F07BBB00BF41210020B00600209C00002067
:202D0000A406002010B50A4B04461B783BB9C36003612146BDE81040064800F0A9BB043045
:202D200000F0FCF82146BDE81040024800F0A0BB41210020A4060020704700BF10B50E4CDD
:202D40002368B3B1FEF712F922685168136892681944091A4AB192E8180023441B1A926829
:202D6000994228BF1946002AF5D1044B0844186010BD024A136010BDA8060020AC06002036
:202D80002DE9F041038805467BB1592B08D1872912D0822920D059232B800120BDE8F08102
:202DA000002303800320BDE8F081254A0120136059232B80BDE8F081214F3B68002BEAD0FC
:202DC000D9688A4203D024E0D9688A4220D19B68002BF9D13B60DEE7194F4FF000083C6866
:202DE000002CD8D0002604E0A3682646002BD2D01C46204600F068FA0028F5D0E0688821B9
:202E0000224600F0C5F978B10E4800F00DFAEBE73B6099680029BED0C86882420BBF896852
:202E20000B4699608968F5E7E060A3682EB1B360C4F80880FFF782FFD1E73B60F8E700BF92
:202E4000A8060020AC00002010B50446104800F0EBF91049E3680A684BB142B194420FD0E3
:202E6000134601E09C420BD09B68002BFAD10A4BA2601B680C60E360BDE81040FFF75EBFD5
:202E8000054B1B68E360BDE81040FFF757BF00BFAC000020A8060020B0060020014800F0B3
:202EA000C3B900BFAC00002010B5044600F0F8F92046BDE81040FFF7C7BF00BF10B5044676
:202EC00000F0F6F92046BDE81040FFF7BDBF00BF10B5044600F0F2F92046BDE81040FFF74C
:202EE000B3BF00BFC068B0FA80F04009704700BF05C81044704700BF024B1868003018BF35
:202F000001207047A8060020024B186808B1024B18687047A8060020AC06002010B5114B40
:202F200004461A68904218D05AB19368834208BF13460AD02BB19A68A24206D01346002B2A
:202F4000F9D10023A360E36010BDA2689A60FFF7F5FE0023A360E36010BD82681A60FFF7F4
:202F6000EDFEEEE7A80600202DE9F843DFF8A480274DD8F800702E68874247D077B33B46A2
:202F800001E0002B3BD01B689842FAD133B3837B8946044623B3002383736FB1BC424FF0A9
:202FA000870106D0BB7BDB0703D53846224600F033F83F68002FF1D1A3683BB14C4505D0CD
:202FC0002C6004F10C00832100229847D8F80000844208D12368C8F800302E60BDE8F88327
:202FE00038468442F6D00028F7D00368A34208D0002BF2D01A68A24204D01346F8E7BDE8AC
:20300000F883034622681A602E60E7E73B46BDE7B0060020B406002070B586687EB104462B
:203020000A4802230460A37304F10C000D46B0470238012804D9832D02D00123A37370BD2B
:2030400020462146BDE87040FFF78EBFB006002070B50C4A0C4B146800251D7084B10126D9
:2030600001E0246864B1E37B002BFAD0A673E573204682210022FFF7CFFF2468002CF2D1A0
:2030800070BD00BFB406002044210020024B1878421C1A70704700BF4521002070B40748B1
:2030A0000749084A0023084D084C8A2603700B6013602E70237070BC704700BF432100204A
:2030C000B4060020B006002045210020422100202DE9F041244D2B780BB1FFF7B9FF234E01
:2030E0003378D3B1DFF890E0214F9EF80020013B02EB420189007C180132A068DBB202F0F1
:203100001F0233708EF800207F5CD4F8048098B1812F06D0827BD20705D428781844BDE8FB
:20312000F0810123837339464246FFF775FF337828781844BDE8F0810E4A146834B9ECE742
:20314000A37BD9070AD42468002CF0D02B78002BF6D0FFF77DFFA37BD907F4D52046394669
:203160004246FFF759FFEEE74421002043210020B8060020B406002042210020024A034BC6
:2031800010781B78184470474321002044210020F0B40C4D2C78202C11D00B4B0B4E1B78E8
:2031A000671C234403F01F0303EB43039B00F418A06062602F70F1540020F0BC70470120EB
:2031C000F0BC70474321002042210020B806002038B5837B034CDB07256801D5FFF71CFF17
:2031E000256038BDB006002070B404460D4D2868A04206D038B1034600E023B11B689C4228
:20320000FBD170BC7047002CFBD0012600232060A673A3810A4620462C60812170BCFFF7FB
:20322000D7BF00BFB406002038B1837B013B012B03D8024A01231370C373704744210020D0
:20324000FDF7D8BE38B50B4D049A2C6880E80A008442826008D028600CB1002038BD0846D3
:20326000FDF7CAFE002038BD0846FDF7C5FE2C60F3E700BF3808002010B5084C206858B149
:2032800000224368816822609847236823B1BDE810401868FDF7B0BE10BD00BF38080020F5
:2032A00010B541600446FDF761FE206010BD00BF90E80C0013440360704700BF10B504463C
:2032C000FDF754FE206010BD10B50446FDF74EFE23686268C3F10103184482422CBF0020D4
:2032E000012010BDF8B5048805466B2C0CD07D2C1BD01CB1002303800320F8BDFFF7C6FE50
:203300001E4A1F4B10701C601D4C264604E00A2813D023687E2B2BDD1A4800F0D5F8431C57
:20332000F5D16B232B800120F8BD852901D00120F8BD134C00232360E6E7114C124F236848
:203340000E49002603F1010E3A4609783046FE54C4F800E0FFF71CFF0C4B32461868852182
:20336000FFF716FF0028E5D17D232B800120F8BD05495A1CC8543260CEE700BF1C2D0020F4
:20338000440900203C090020BC080020B006002008B505480549802200F08EF8BDE8084044
:2033A00003480021FFF720BF3C0900203C080020BC00002008B5FCF7D3FF024B00221A70AC
:2033C00008BD00BF46210020034A1378434018461370FCF7D9BF00BF46210020002303604F
:2033E000704700BF00687047026842B1914203D11BE099420ED01A461368002BF9D100238D
:203400000B6002680AB90EE01A461368002BFBD1116070470B68136000230B6000230B602A
:203420000268002AF1D1016070470B680360F3E710B404684CB1A14217D0224602E0994252
:2034400008D01A461368002BF9D10C6001605DF8044B70470C460B68136000232360046852
:203460000C6001605DF8044B70470B680360F4E7026842B18A4203D10BE0994204D01A467C
:203480001368002BF9D170471968116000221A607047134612680260F8E700BF03682BB1A6
:2034A00000201B680130002BFBD170471846704700B10068704700BF0023013A01600271B4
:2034C00043718371704700BF0346807959791A79091A114208D010B4411C1C680A40205C6E
:2034E0009A715DF8044B70474FF0FF30704700BF08B5064801F0EEF8054B00220120FD21EF
:20350000187099705A70DA7008BD00BF893F0000AC0A002070B413780D7A83F002039D4257
:20352000044614D00B891BB94B89B3F57F4F2FD01E4A51F8085F13684E68012003F1080145
:20354000A0405E601D601160C0B270BC7047487A53789842E6D1887A93789842E2D1C87A90
:20356000D3789842DED1087B13799842DAD1487B53799842D6D1887B93799842D2D1D379FB
:20358000CA7B9A42CED1032303FA04F0C0B2DCE78B89FE2BCCD1054DC9892A68022322F8D0
:2035A000021B03FA04F02A60C0B2CEE75009002010B5114C0220A17904F094FDA379112B98
:2035C0000FD0062B0DD03A2B05BF94F8281094F82930002143EA01210120BDE8104004F0B2
:2035E00081BD238D618D01209942A8BF1946BDE8104004F077BD00BFB424002010B5084C40
:203600002378012B01D0002010BD01460822A01C09F040FC00280CBF2046002010BD00BFBE
:20362000AC0A002008B50146102004F069FD044B04489B6800219847BDE80840FDF7FCBDEE
:20364000C0E200004936000010B50C461146204608F0C0F8044B1B6813B19B6820469847E7
:20366000024B1C6010BD00BF10100020BC0A00202DE9F041154D07462A460023907871329B
:2036800030B101330C2BF9D14FF0FF30BDE8F081C3EBC30403EB04142E19717004F08AFC73
:2036A000DFF830800A4A98F800301168C01A2F55B070CC1804F07EFC98F800202146821A73
:2036C000F01C09F019FCB078BDE8F081C00A0020B80A0020482100202DE9F04F074683B068
:2036E00082BB5F4E894636F8063C15469346FF244FF0FF38DFF874A1B3BBB8F1FF3F4CD077
:20370000012D06F1AC062AD1B8F1FF3F22D0AC2000FB08F5DFF84C810F2008EB0506A6F8CB
:203720000690B78004F0F8FC0146304604F012FD304640210C30FFF7B3FD234658B203B035
:20374000BDE8F08F474D00262C46A388BB422CD0AC3436B3FF2358B203B0BDE8F08F36F8FB
:20376000063C0125002BC8D03046FFF7ADFD68B13D4B26F806BCE9B29A7822B11A788A42A9
:2037800008BF83F802B071335345F5D1B8F1FF3FB6D136F8063C002BB2D1ECB24FFA84F844
:2037A000AEE7A3880126BB42D2D1E388002BCFD00F20019204F0B0FC0146204604F0CEFC80
:2037C000019A0028C4D0F4B211462046FFF750FF0028019A0CDB0028BCDDAC2303FB065656
:2037E000234632891044308158B203B0BDE8F08F4FF0000BDA461A4FDFF870904FF0AC0822
:2038000037F8063CEBB156451BD038460192FFF75BFD019AA8B15FFA8AF008FB0051002378
:203820009E469C46CB80104B997831B11978814204BF83F802C00EF1010E71334B45F3D1CF
:20384000F344AC37BAF1000F07D0BBF1000F81D011462046FFF70CFFBDE74FF0010ACFE74F
:203860006009002054090020C00A00200C1000202DE9F04715090F2D07469A4602F00F0443
:203880003FD00F2C34D0A146A84666195DBB0F2E03DD5CB9E5B9BDE8F08707EB0800C6F1D1
:2038A0001002002109F002FC002CF3D0DFF87480C9F11000D8F8006038443146224609F0D6
:2038C0001BFB022C26D03444C8F80040BDE8F08738465146BDE8F04706F014BA4546202694
:2038E0004FF010094C462A46384609F005FBCEE7A84605F11006002DF2D14FF010094C466E
:20390000D4E70F2C4FF01008E8D042464546A146A618E9E70A2DD6D8FF22FE23FA723B73D9
:20392000D1E700BF500900202DE9F04F0F2089B0DFF8F482B24D04F0EFFB002704F0A4FCF5
:2039400088F800702F7004F021FBAE4E3060042004F0D0FB3368DFF8D4E21C785A7804F0D7
:20396000F80100B2C029CEF8000042EA042274D0E02963D1297893F8049093F802E0D8789D
:20398000C2F30A044B1D4A46214640EA0E202B70FFF7A2FEB0F1FF3F83465BD09A4AAC23F6
:2039A00003FB0023B3F808A00123A245009734BF4FF0000A4FF0010A019304F0FBFA2B784B
:2039C0008F4D834246D804F0F5FA2B7898F80080C51A08EBC9098D4AA944B9F1800F15607C
:2039E00038D837B1316807EB080019442A4609F083FA002C78D0009B53B183494FFA8BF353
:203A0000AC2000FB031305EB080292B21A819A82BAF1000F40F00E81019BDBB97C4B4544DB
:203A20001D807C4C236823B1FFF7C2FD23685B68984700F069FE09B0BDE8F08FBB46009714
:203A40003C46754F2A78995C01F0E000602854D041291DD009B0BDE8F08F297893F802E0CA
:203A6000D878C2F30A040B1D3A46214640EA0E202B70FFF731FEB0F1FF3F8346EAD0624FF9
:203A8000AC2303FB00770122336816370092D9E73946501CC0B2034403F12000D3F800A062
:203AA000D3F80490D3F808C0D3F80CE010338342C1F800A0C1F80490C1F808C0C1F80CE089
:203AC00001F11001EAD118685B6808604B6098F800302932283388F80030009B4FF0000AC8
:203AE0002A70D146019368E7019B002B96D0BAF1000FAFD0464B1C8093E7981890F801905C
:203B00000232DFF82CA14FFA89FC1344BCF1000FCAF80030BCBF0133CAF80030CA064AD56A
:203B200001F0080303F0FF0E002B40F0B181DAF800301A461B78C3F3830343F060033B708A
:203B400012F8010BA7F802E0830803F0300343EA8013CAF800207B7001F0040303F0FF02A4
:203B6000019233B9DAF8003013F8012BBA71CAF8003011F0030100F09880284B5B5CFB71CD
:203B800019F0400FC9F3011300F06381BCF1000FC0F29A810022002B00F08F80204908786B
:203BA000012800F0B7811F4A00239A4699461360009B019301E70B0700F17081DAF80030E9
:203BC0001A4633F8010F9B78A7F80100FB70787812F804EB00F00F00019202464FEA9E038F
:203BE00003F0300040EA8E10104303F00F03019A43F06003CAF800203B707870ACE700BF8A
:203C000048210020B80A0020540900200C100020A024002010100020B424002074DE000012
:203C2000AC0A002048090020472100204C090020500900204FFA8BF9AC2101FB09F1DFF860
:203C400034A3C2480AEB010319469A8A1C811631BF4E09F051F9BD4B06F24C5716F8012CF5
:203C600022B116F8031C894500F03C817136BE42F4D100221046AC235FFA89F903FB09AA8A
:203C8000B44B5FFA8BFCAAF8062003F24C519A781AB11A78624508BF987071338B42F6D1CE
:203CA000019B002B3FF4BAAE24E7DAF8003013F8012BFA71CAF8003062E707F10802049220
:203CC0000593A54A0F20D25CCDF80CC0029204F023FA05990346029A0498FFF7C9FDDDF81A
:203CE0000CC009F0080303F0FF0209F0030E002B36D019F0040F11D1984A0EF1FF3312881A
:203D0000012BADF81C2040F21881954B07F1180013F80E2007A90023FFF7AAFD98F8002082
:203D200002F1280388F80030019B002B3BD1DAF800303268DFF840929B1A2B70002C00F031
:203D40009A80A4F128031A127B713A71BB79112B00F0C080009B4FF0000AD14601932CE685
:203D600019F0040F00F0C880BCF1000FC0F2DE807C490B78012B7FF416AF4B7893427FF46C
:203D800012AF794A744B102013F80E901160029104F0C2F9029903464A46023107F118009D
:203DA000FFF766FDBAE7DAF80030197801F0F801F029BED11121B971187800F0F301F039EB
:203DC00000F00400C0B20329C4D8DFE801F0382F2002597802330909A1F5756189B20902AA
:203DE00041F0F001398513F8011C01F00F01A1F5756189B2090241F0F0017985CAF80030F6
:203E0000002800F0BB80303288F8002091E759780433A1F5805189B2090241F0F001398540
:203E200033F8021CCAF800307985E9E7B3F801100433398513F8011CA1F58051D9E7B3F8CE
:203E400001100533398533F8021CCAF800307985D6E7464A0F20D25CCDF80CC0029204F05F
:203E60005BF9029A0346424907F10800FFF700FDDDF80CC035E704F09DF899F8002098F804
:203E80000030801A0344283B1A127B713A715DE7002360223A707B707B805DE6DAF800203D
:203EA000602310463B7010F8013B03324FEA930E0EF0300E03F00F034EEA03037B70038836
:203EC000CAF800207B8047E62A7831680A449278120960E6BB884FF0000ABB85009BD14666
:203EE00001936AE516F8020C314603EBC000009309F002F8009BB9E61C4B102013F80E909E
:203F000004F00AF94A460346194907F11800FFF7AFFC03E7487890427FF445AE124A881CDC
:203F2000116007F1080205900492CAE632682B7813449A7802F00F021AE7DAF8003013F87C
:203F4000012B8DF81D20CAF80030DEE6B4240020C30A0020C00A002090DE000070DE000032
:203F60008CDE0000AC0A00204809002078DE00007CDE0000540900204821002033F8021B92
:203F8000F985CAF800303EE72DE9F04FB14EDFF8F4A2002387B033708AF80030054604F0DD
:203FA00039F803F0F3FFAC4BAC4C1B6820600BB1FFF7FEFA05AB0193002D00F0A682294657
:203FC000184604F0C7F8A64B1B883E2B36D99AF80070D4F8008000230237A24D08F80730F4
:203FE000A14808F102032B60FFF708FB002800F00F8108F103032B604FF08009DFF870B263
:204000009BF801209BF80010130943EA0113DBB2980840EA8313DBB210075FFA83FE5FD151
:20402000BBF8020000285BD1080740F0F98012F0F00F40F0F5807823029361E0DFF830B2EF
:204040009AF800C0DE4623680CF10105EDB241221D441A700BF1200877460FCF474528609C
:204060006960AA60EB600EF1100E05F11005F3D1BEE803002860696033780CF1290C283304
:204080008AF800C033700199102004F039F8774B734D1B689847724B0028B3F8009036789A
:2040A0009AF80080ACBFC0F17D076827C6EB0902C8EB0703B8BF15209A4240F3B880C0F1A2
:2040C00078031E46029303F073FC99FBF6F909F101098145C0F2D880002007B0BDE8F08FB8
:2040E000090703D112F0F00F00F084802A68DBF800001346106003F804EB2B60602302932C
:204100009BF80630112B00F005822A6802F8013B9BF807302A60402B00F00582FF2B00F00B
:204120002282012B61D02A6802F8013B2A60BBF808304F4A3BB953892BB993891BB9D389A8
:20414000002B00F043824B48FFF758FA4A4B1860002800F07681427818F80730042043EA36
:20416000021308F807304349444AFFF7D3F960F03F005FFA80F99BF818303D49FF2B00F03B
:204180008E8101F118000391FFF738FA3A4A03991060002800F0CC8118F80720437818311A
:2041A000134308F807300020019AFFF7B3F949F004095FFA89F949EA00002F685FFA80FE53
:2041C0009BF806302822112B3270294900F00F8123689AF800209DF80800FF1A991898546C
:2041E0008AF8007081F801E04DE7029B43F0010302939CE7296823F03F031343204A0B7032
:204200001288CB1C2B606823A1F80120029377E71848FFF7F3F900287FF4EBAE8146EDE64A
:204220002B68702203F801EB02922B6068E720680BEB0601404408F05FFE28884044801BD7
:2042400080B203F09DFE0198FFF7ECF9012007B0BDE8F08F4721002010100020B80A002084
:20426000A024002050090020CC240020B4DE0000B4240020BC24002048090020AC240020E6
:20428000B624002048210020C24BD4F8008093F80090C14E41464A46002308F1040033604E
:2042A00008F0A0FE2B88DFF818E36FEA83436FEA9343BA4AC3F3072309F104095FFA89F9CF
:2042C00088F80030BEF8003028881178C9EB070703F1010C27F007071A0A88F80330B04E52
:2042E000AC4B88F8010088F8022059443A4608EB090083F80090AEF800C0376008F0FCFD92
:2043000007EB090080B203F03BFE03F057FBA54F804600283FF4E0AE0198FFF783F94046CB
:2043200003F086FB404603F06DFB9B4B1B68012B3FF4D2AE043B012B7FF6CEAE2B883A682F
:204340006FEAC3436FEAD3439449C3F3072391F8008013703368029943442D881FFA83F840
:204360008C4B21F007000521557030601970374632E0D6F8009020684A450346B8BF9146AF
:204380009AF80050B8BF3A6083F804E04A46284408F0B2FD09EB050080B203F0F1FD03F029
:2043A0000DFB054600283FF497AE0198FFF73AF9284603F03DFB284603F024FB764A3368D4
:2043C00012689844012AA2F104031FFA88F83FF483AE012B7FF680AE734B0BEB08011B8896
:2043E0004FEAD80E9845C8EB0302C2D32EE74FF2B0020B8D5BBA9BB223F00F0080B290424C
:204400004A8D52BA92B200F0B38002F47F42B2F5704F00F0308103F47F43B3F5704F00F084
:20442000FA80624BF0223A7018687B1DC7F801001F465F4B30221B88327027F8023B2F6030
:20444000C6E648F2FE03BBF808205A499A420FD14B8B6BB98B8B5BB9CB8B4BB90831042060
:20446000554AFFF757F840EA09005FFA80F982E6D5F800C0DFF84CE10CF110032B60BEE819
:204480000F00CCF80410CCF80000CCF80820CCF80C309BF818304749FF2B7FF472AE91F8D4
:2044A00019C049F0080EBCF1020F5FFA8EFE4B8B00F0BC80002B44D18B8B002B41D1BBF8E9
:2044C0001E303C48002B3CD1038C33B9438C23B990F82430002B00F0DA80BBF82020354BE8
:2044E0007ABB93F8222062BB2F6849F0090E3A4602F801CB53F8231F063747F8051C1B79B2
:204500005FFA8EFE13712F605AE618462B4903F021FE58E5029B43F0040302939BF807300C
:20452000402B7FF4FBAD029B43F002030293FEE548F2FE030A8B9A4202D14B8B002B5AD0FE
:20454000CE46D5F80080DFF880C008F11007BCE80F002F60C8F80000C8F80410C8F8082015
:20456000C8F80C302CE6029B43F003030293DEE522F00F0C84457FF448AFF3233B704B8D06
:204580000A8D1B0A120A03EB021303F5AA637B70BB1C4DE748210020BC0A0020472100204E
:2045A0000C100020B80A0020A0240020DC240020E2240020B4240020AC240020B0DE00003D
:2045C00032210020BC240020CC240020138A002B7FF4B9AD538A002B7FF4B5AD938A002B92
:2045E0007FF4B1ADD38A002B7FF4ADAD49F040095FFA89F9BFE58B8B002BA1D1CB8B002B60
:204600009ED11831019AFEF785FF40EA09005FFA80FE2F68D4E5F2233B70BBF82830244A3B
:204620001B0A7B7012883B1D7A8001E7002B88D18B8B002B85D1CB8B002B7FF440AF0B8C01
:20464000002B7FF43CAF4B8C002B7FF438AF8B8C002B7FF434AF91F82630002B7FF42FAF82
:204660002F6891F8273049F00B0E07F8013B5FFA8EFE2F60A4E5F1220E4B3A701A883B1D29
:20468000A7F80120BBF82A20120AFA70D0E62A6849F00A0E134603F801CB30F8251F171D7E
:2046A00080785FFA8EFEA2F801102F60987087E5DE240020DC24002008B50548FEF712FC20
:2046C00000B908BD0248BDE80840FEF701BC00BFB8100020014B1860704700BFC81000209A
:2046E00000B5074B83B08DF80700186828B1054B0DF107021978FEF76BFD03B05DF804FB4F
:20470000A82B00201E2D002008B5022100220448FEF75EFD0349044A00230B80137008BD0D
:20472000CC000020A02400205121002038B5294C238863B3B3F5A06F24D8274D2B8B6BB9F3
:204740006B8B5BB9AB8B4BB9EB8B3BB92B8C2BB96B8C1BB9AB8C0BB9EB8C9BB100F0D2FACB
:2047600080B12B7EFF2B13D01C4805F013F9A8B11A4806F0FBFF58B306F0F0FF184B1B686C
:2047800003B19847174A00231370238038BD38BD134B1B68002BF5D00020F2E70F4805F0DC
:2047A000C1FB054678B105F095FB0028E1D1EB6923B11B6A93F8940001F0E0FA2846BDE8C0
:2047C000384005F0EBBB05F05FFD0028D1D1D9E7208038BDA0240020B4240020CC2400206A
:2047E000C810002051210020F0B5038883B00546CBB140F24B30834210D1022900F08B808C
:2048000033D800297BD0012929D142B35B4B05201A6005F0E1FEFFF789FF20E00023032023
:204820002B8003B0F0BD1846554921F833000133142B534AF9D1534B1B68C2F8A030FEF7AB
:2048400025FC514B1870FEF721FC504B402118704F48FEF729FB05F04DFE00F081FB40F2EF
:204860004B3301202B8003B0F0BD872911D08829F5D1474B9A4223D0464B9A42EFD11046A2
:20488000FEF730FB0028EAD005F094F9FFF74EFFE5E7414C002704F1A00602E00834B44222
:2048A0004AD054F8043C9A42F8D134F8080C019205F07EFE24F8087C44F8047C019AEDE79E
:2048C00010460192FEF70EFB019A0028D4D0334C334F04F5C07602E03034B442CCD094F8F6
:2048E0002530002BF8D02A480192FEF7F1FA02203C6005F071FEFFF719FF019AECE7002AC3
:20490000ADD0274B03201A6005F066FEFFF70EFFFFF7D2FEA3E7234C2388002B9FD0224B3E
:204920009A79062A23D0012005F056FE2388002B95D0FFF7FBFE92E7184B002403F5C07085
:20494000996A30338A4204BF43F8084C03F80B4C8342F5D1154B002403F5A0709969203315
:204960008A4208BF23F8104C8342F7D177E793F835309B07D7D5FFF79FFED4E7BC290020B1
:2049800014100020B00600201D2D00201E2D0020B8100020902400201C100020C82900200F
:2049A000C4290020A0240020B4240020DC2B002010B5164B1A6822B302F12804144B1B7859
:2049C0005B0614D5134B118A03F1A00002E0083383420AD033F8082C8A42F8D153F8042CD5
:2049E000002AF4D0002384E80C00FFF765FE206830B1094B62681978BDE81040FEF7E8BB30
:204A000010BD064B1C681834D8E700BFC4290020B42900201C1000201D2D0020BC29002065
:204A200070B52F4D2F4CAB790022267822701BB995F82A30632B02D02670012070BD95F858
:204A400029301BB995F82B30042B01D0002070BD95F82D0001F060FC18B390F8953003B31F
:204A6000C268937DEBB12378928B2A3352BA2B449A8090F89420DA7090F89720012ADBD912
:204A800093F9023005F11800002B0CDB05F04AFA23782A331D44AB78E8B163F07F03AB70FA
:204AA000CAE72670D2E705F03DFA0028C4D123780F202A331D44AB7843F02003AB7003F0FE
:204AC0002BFB01F0B9F80028C0D00749002200F0F7FF002070BD03F07F03AB70ACE700BFCF
:204AE000B424002051210020CC2400202DE9F84FDFF89C80254CB8F800600025B6F59F6F6D
:204B00002778257003DD27702846BDE8F88FDFF884C0A6F12802ACF1080B8946824659468E
:204B2000604608F05FFA844610F82A0C63210422CBF804500CF82A5C4CF8085C0CF8080C6B
:204B40000CF8061C0CF8052CDAF800201CF82B0C918B00F1080249BA2CF8021C99F80010C0
:204B6000D2B2083690420CF8031CA8F800600CF82B2C04D91CF82C2C01320CF82C2C08370C
:204B80002770BDE8F84FFFF74BBF00BF51210020A0240020E42400202DE9F047374D384CE0
:204BA0002B782833E218527832B940F263420344195B2344914202D00020BDE8F087064622
:204BC000D87801F0A9FB07460028F5D02B782833334423449A7890060ED597F89730012BCD
:204BE00006D904F1180005F09DF908B105F0D6F9384607F0F5F9DFE7F968897D0029DBD05D
:204C000020490F20B3F80490D1F800A05FFA82F803F082FA0146504603F0CAF899FA99F95B
:204C20001FFA89F240B12B782833334423449B78590648BFA0F80490FB689B8B934294BFBD
:204C40000023012318F0800F03D023B10120BDE8F087002BFAD020B1C7F85001384607F047
:204C6000D1F92878283030440444A3785A06BFD443F04003A3700120BDE8F0875121002050
:204C8000B42400200C0100202DE9F041194C1A4EA0460023A579194F33702B2D04D03C2D14
:204CA00021D00DB1BDE8F08194F8291060790131C900C9B23A88431A521ADBB294F82850FF
:204CC00092B2283198423A806371A5712144A2F128020B4804D298F80430013B88F80430BA
:204CE00008F080F9D9E794F82930DB0008333370BDE8F081B424002051210020A024002061
:204D0000DC24002038B5194D2B68EBB1DA68DAB148F2FE01164C208B884215D0217EFF2968
:204D200012D0928BB3F8A4309A420FD004F1080004F04EFE20B10F4BE2791B799A420DD02A
:204D4000BDE83840FFF76CBE012038BDFFF79CFF04F1180001F0B6FA0028F5D02968BDE89E
:204D6000384001F10C009431FFF7C0BE80210020B424002034230020014B1878704700BF02
:204D800049210020F0B585B005F0B2F8034650B19A691846013AD11C98BF9A6105F0AEF850
:204DA00003460028F4D105F0A3F80446B0B1134FA66904F108039EB90FCB8DE80F002046F6
:204DC00005F0ECF805F094F83B680446DA68B3F8A430918B99420AD1002CE9D105B0F0BDB1
:204DE000204605F08BF80446002CE1D1F6E790696946324600F064FE05B0F0BD802100203B
:204E000010B5044605F074F830B1C369A34204D005F074F80028F8D110BD05F0BFF805F09C
:204E200067F8F1E770B505460E4605F061F8044688B1204605F04EF82946102208F02AF84A
:204E400018B9E369B34208BFA061204605F056F804460028EDD170BD10B504460846D1B292
:204E60001A4605F00FF988B1C461236A93F89B20FF2A16BFB3F8A6304FF0FF325A4390F890
:204E80002230826123F0010380F8223010BD00BF48F2FE0200B585B0002301466846ADF88F
:204EA0000230ADF80430ADF80630ADF80830ADF80A30ADF80C30ADF80E30ADF8002004F0D3
:204EC00021FF0A4890F89530012B02D005B05DF804FB694601F050F80028F7D0C37943F0C6
:204EE0000103C37105B05DF804FB00BF8421002008B50A4B93F89520012A00D008BD014694
:204F0000184601F039F80028F8D04FF6FF72C379828043F00103C37108BD00BF8421002079
:204F200038B50E4B93F895206AB103F1100403F19005637D23B1E36B5A1E2BB9A37D43B1CD
:204F40004034AC42F5D138BDE2634034AC42FAD0EFE7204601F06CF9F2E700BF84210020D4
:204F600010B5114B84B000241C6000F05BFE07F019F800F0ABFD40F2FF224FF4D0536846EC
:204F8000ADF80240ADF80440ADF80640ADF80840ADF80A40ADF80C40ADF80020ADF80E30E1
:204FA00004F050FD04B010BD8021002010B44418435CE2786178A07842EA036343EA014361
:204FC00043EA00205DF8044B704700BF0249034A00230B8013707047A02400205121002074
:204FE0002DE9F04F81B004460D4617469846FFF7C3FE01286FD0002C6DD0204600F032FE45
:20500000002868D02268002A65D0166A002E62D0002D60D03B4BDFF8F0C093F800E096F804
:2050200094A00EF12C0E0EEB0C0300214FF040090CF80EA083F8038083F801909970D2F8C3
:2050400000A0D2F80490D2F80880D2F80CB04FF0050CC3F804A04FF0120E4FF0800AC3F8E8
:205060000890C3F80C80C3F810B0997583F814C083F815E083F817A0D5F80090D5F8048029
:20508000D5F808C0D5F80CE00625C3F81890C3F81C80C3F820C0C3F824E083F8285096F802
:2050A000972083F82A10012A14BF0422142283F82B1083F82C1083F82D7083F8292096F853
:2050C0009720012A0AD02E239B21022201B0BDE8F04F04F0A5BB01B0BDE8F08F2268116822
:2050E0005268C3F82E10C3F8322050F8081F4268C3F83610C3F83A2020680028EBD03E23F5
:20510000E2E700BF51210020B42400202DE9F04FDFF860829DB000215C2205A807F0C6FF1A
:2051200098F80010924A01F12C0E0EEB02052E46DFF84492E87802F1080395F802B012F8FF
:205140000E2099F800A095F804E001AF95F801C040EA0B2BC1EB0A0A8DF82C200FCB87E847
:205160000F006B792EF07F028DF82820CEF3C2020EF0070E56F8080F8DF829208DF82AE076
:2051800008224FF00C0E8DF82BC08DF82D304FF00A0C80238DF82E208DF82FE04FF46072C6
:2051A0008DF830C0ADF836304FF0010E3C234FF01E0C7168ADF83230ADF826B0ADF8342005
:2051C000ADF824E08DF831C0B268F36805ACAAF12C0A5FFA8AFA0FC41824544532DA2B5DA0
:2051E000002B00F0B5802A1992F801B00BF1020B04EB0B06564529DC023B062B1FD8DFE80C
:2052000003F081642D1E1E1E0400BBF1200F1DD192F802E0D37804F1080128468DF864E076
:205220008DF86530FFF7C2FE10342C44189061682068A268E3680DF1500EAEE80F00344621
:205240005445CCDB01A805A901F092FA0023A9F8003088F800301DB0BDE8F08FBBF1100FDA
:20526000F4D1A01D04F1080115F800C005EB000E68184078695C04F10A039EF801E040EA43
:2052800001200E34E9184EEA0C2E497815F803C02B195B782C5D41EA0C2143EA0423ADF8B6
:2052A0003600D4781079ADF824105179527B8DF82E40ADF834E0ADF832308DF82F008DF887
:2052C00030108DF831203446BAE7BBF1080FBDDD9778D278211D28468DF84D208DF84C7008
:2052E000FFF764FEFA1DD210D11D8B451290ADDD802FABD804F1080129440EA807F0FCFD30
:2053000034469DE7BBF1050FA0DDD1781379490041EAD3118DF86910C3F3011190788DF8D2
:205320006A10517903F00F038DF86B308DF868008DF86C10002882D007280FD0022885D10E
:205340009179D3798DF86E108DF86F30344677E7661CB245FFF67AAF344671E706342B1911
:205360002A5D5B78344643EA0223ADF86E3067E7B424002051210020A0240020F0B583B030
:205380000F461646054606F0F1F9044610B1204603B0F0BD0F2002F0BFFE2246014600973C
:2053A00001962846012306F0BDF90446204603B0F0BD00BF2DE9F04FDFF8E082B44F98F828
:2053C000003091B03B4493F82C0000F0A5FF002800F0E88090F89730012B40F2E380AD4A0B
:2053E00098F80090154609F12C060DF1200E07F10803002402920FCB8EE80F00B85D2D88F6
:205400000C940D940E940F9400F086FF3E4490F89B207378F1780192C26806935B0604902D
:205420000591039227D49DF820300424FF2B2ED0039808A900F094FD002800F01E81049BEE
:205440008288B3F8A410039BB2FBF1F29B8BB3FBF1F39A4280F00C814FF6FF72C379828030
:2054600043F00103C371029A0023138088F8003011B0BDE8F08F1046311D102207F00AFD06
:205480000028F0D19DF820301424FF2BD0D102230793C9EB050CACF12C0C5FFA8CFBA3451A
:2054A0004FF00009D8BF0DF1300A2FDD0DF1300AD4464B46DDF804A006E0062A01D190F8FD
:2054C00005A02C445C451EDA325D30190125002AF7D04578211D052A05F102053144ECD1D6
:2054E00090F80390CCF8003009F107026046D2100D930E930F93019307F0FEFC2C445C4599
:205500008446019BE0DBCDF804A0E246504604F009FD019B0446002B47D10028A3D090F8FD
:205520002230DD079FD490F824304B459BD104F0D1FC002897D0204604F0CCFC08A9102295
:2055400007F0A8FC00288ED194F822303C2243F0010384F82230039BA2619869002882D0CC
:2055600000F080FB00283FF47EAF4B4A94F82210137841F0020113F0800F03F1010314BFC9
:20558000DBB203F07F03137098F8002084F8203017449DF8142084F8221084F8212087F8FC
:2055A0002F305BE03B4B02935DE7049C08A802212246FFF7E3FE00283FF455AF51464A46BA
:2055C00008AB0398FFF748FC054600283FF44BAF019AFF2A13461BBF2346B3F8A6304FF083
:2055E000FF33534390F82220836122F0010380F82230079B012B7FF436AF069BBDF8144085
:2056000019063DD4039B986900283FF42CAF00F029FB00283FF427AF95F82220930703D5FF
:2056200095F82130A34230D01B490B7813F0800F03F1010325D103F07F0318460B709DF85D
:20564000143042F0020285F8222085F8213085F8200098F80020174487F82F00039B98694E
:2056600000F000FB5B469B21022204F0D9F8FAE6039B9B6998423FF4EFAE0123079308E720
:20568000C0E7DBB20B701846D9E795F82000E0E7B4240020A0240020300300205121002008
:2056A00010B5134B134A1B7800212C339C18617084B0D15430B19B210022022304F0B0F8F9
:2056C00004B010BD40F2FF224FF4D053ADF80200ADF80400ADF80600ADF80800ADF80A0039
:2056E000ADF80C00ADF80020ADF80E306846E2E751210020B42400202DE9F04F0546B54BB0
:2057000090F894201B78B44CC6682C33E254B27C1C446270B08B0023020AB5F8A4E0A270EA
:20572000E0702371F27C8FB00F46002A40F08B801346227195F89720704543EAC203DBB2BA
:205740002371327D02F0070243EA0203237195F89630637100F027810023A371E371D6F82D
:2057600000E07068B168F268C4F808E0E060216162612B78002B40F0D38018229346272327
:20578000099326230893232307932223069321230593202304931F2328204FF0250E039383
:2057A00024238DE809401E211D204FF01C0E4FF01B0C4FF01A084FF019090423A3544FF07A
:2057C0000E0A002204F809A004F8082095F89880049B04F80C8095F899C004F80EC095F8BD
:2057E0009AE004F800E0B5F8A2004FEA102E04F801E003996054B5F8A410080AE054059B19
:20580000E154A968069B098C080AE054079BE154019BE25495F89B10029BE154B5F8A610B0
:20582000089B080AE054099BE15496F8381069B9002F58D03846009B9B21012203F0F0FF7D
:205840000FB0BDE8F08F80231A4672E73046009B04EB0B011E254FF0080E04F803E04D74C5
:2058600096F838300BF11C0C8B7496F8393004EB0C0ECB74736B0EF102054FEA136A4FEAFD
:2058800013494FEA132881F814A081F8159081F81680CB75736B0BF120064FEA136A4FEAAF
:2058A00013494FEA1328CB7681F818A081F8199081F81A8004F80C208EF8012005F8012B79
:2058C0002A7050F824CFA219D0F804E08568C1680BF1300344F806C00093C2F804E095601F
:2058E000D160002FA6D140F2FF25009B4FF4D0540AA89B210122ADF82A70ADF82C70ADF8C3
:205900002E70ADF83070ADF83270ADF83470ADF82850ADF8364003F083FF0FB0BDE8F08F84
:20592000AB682846DB69984706230221217663762B78A3766B785B08E3766B78DB01237753
:20594000A878EA7843EA0013134323772B78072B38D0022B7FF474AF202293466377AB79DC
:20596000A377EB79E3772F2309932E2308932B2307932A2306932923059328230493272397
:205980004FF02C084FF02D0C039330238DE80811262125204FF0240E4FF0230C4FF02208D1
:2059A0004FF0210909E7002F7FF4D6AE95F8963013F0800F03F1010308BF03F07F0385F8D2
:2059C0009630C9E66177EB882022190AE377A1779346C8E751210020B424002038B5104CD5
:2059E00094F89530012B05D00E490F4A00230B80137038BD0D4D2B7EFF2B0DD005F1080077
:205A000003210022FFF7BAFC0028EDD0204605F10801FFF771FEE7E7204606F0E1FAE3E716
:205A200084210020A024002051210020B4240020F0B506461F4B0F4685B000211C7E93F808
:205A40002A500CB1012D06D90131032903F12003F4D105B0F0BD9A7EFE2A02D1DA7E802A51
:205A6000F2D06C46144B03EB4113186859689A68DB680FC4002EECD03368002BE9D01C6AC9
:205A8000002CE6D00D4A30461378694613F0800F03F1010314BFDBB203F07F033D1C18BF8E
:205AA0000125137084F8A1503A46FFF799FA05B0F0BD00BF342300204E230020300300204B
:205AC000014B1B78FFF78CBA3003002008B5074803F0F8FD064803F0F5FD064803F0F2FD01
:205AE000BDE80840044803F0EDBD00BFE800002000010020F4000020DC0000207F2801DD53
:205B00007F2910DD884205DD401A0F28CCBF00200120704705DA081A7028D4BF00200120C3
:205B200070470020704701F58071081A1028D4BF00200120704700BF80B183698B420DD085
:205B400070B50D460446064E1946306802F06AF93068294602F05CF9A56170BD704700BFEC
:205B60000C01002038B50D4604460021102207F09DFA2A7D294607322046D21007F0BCF94A
:205B80002046BDE83840014904F0BCB8AC24002070B50D4684B080B1064629B3037D0A7DD4
:205BA0009A4217D068463146FFF7DCFF68466C4603F00EFF18B103F0D9FF4DB16C46294619
:205BC0002046FFF7CFFF204603F002FF0146A8B104B070BDD20807F05DF90028E2D1727DCF
:205BE0006B7D9A42DED1F3E701466846FFF7BAFF684603F0EDFE0028DDD1E9E720460122F9
:205C000003F048FFE4E700BF08B505F0AFFD05F0A5FD034B01461868BDE8084002F0C8B857
:205C20000C010020024B0349186801F0BFBF00BF0C010020E9610000024B0146186802F073
:205C4000B7B800BF0C01002040B1036833B11B6A23B19B6813B11B6903B118474FF6FF703E
:205C6000704700BF08B5044B0146186802F0E4F8BDE8084005F098BD0C01002008B5044B9D
:205C80000146186802F0D8F8BDE8084002F084BA0C010020002846D0036A002B42D02DE933
:205CA000F047D3F80890B9F1000F38D01E4E05463068884601F0C2FF044670B34FF6FF7A8F
:205CC000002705E02146306801F086FF044608B32368AB42F6D1A3885345F3D02A6AB2F83B
:205CE000A4209A42EED8B8F1000F06D02046FFF7C5FF02F057FA0028E4D021463846D9F8BB
:205D00001430984721460746306801F065FF04460028DDD13846BDE8F0870746FAE7484649
:205D2000BDE8F087184670470C01002008B5FFF7A5FFBDE8084002F035BA00BFD0B1036835
:205D400063B11A6ABAB1936843B110B50446FFF795FF02F027FA18B9012010BD18467047D1
:205D6000236820461B6A9B689B689847003018BF012010BD70471046704700BF08B5154A34
:205D800092F895301BB192F89430834201D0002008BDD168B2F8A430888B9842F7D18B7CAC
:205DA0000C4813F0800F03F1010308BF03F07F038B7492F89630074A13F0800F03F101039F
:205DC00008BF03F07F0382F8963006F009F9012008BD00BF842100202DE9F041802A86B0BE
:205DE0000446154690F838601BD88846EEB900F1240731463846102207F058F9EA1D41465D
:205E0000D208384607F078F840233046394684F8385084F83930FFF7BBFE012006B0BDE857
:205E2000F081002006B0BDE8F08106466F4656F8240FF3687168B2680FC7306971691022BA
:205E400003C73046002107F031F9EA1D4146D208304607F051F840236846314684F8385016
:205E600084F83930FFF794FE012006B0BDE8F08138B50446D0F890000D4620B104F098F990
:205E80000023C4F890304DB12846002104F0CEF9C4F89000003018BF012038BD012038BD9C
:205EA00038B50B4C94F8951009B1002038BD05464FF4AA72204607F0F9F80123204684F8A0
:205EC000945084F8953006F03BF9204638BD00BF8421002038B5154D95F895301BB195F89A
:205EE0009430834203D0FFF7DBFF054670B105F1100405F19002944208D295F8253013B91A
:205F000006E0637D23B14034A242FAD8002038BD20460021402207F0C9F84FF6FF7301222D
:205F20002562A38323826275204638BD8421002038B5054610460C4605F03EFC60B1074BA6
:205F4000014601221868234601F0A0FE20B10560638A8380637E837138BD00BF0C01002083
:205F600010B504460846FFF74FFE18B10368A34218BF002010BD00BF10B504460846FFF792
:205F800043FE38B1036823B11B6AA34218BF002010BD184610BD00BF38B500210446FFF732
:205FA00079FE0546C8B1FFF769FE02F0FBF8A0B920460121FFF76EFEA0B101462046FFF72D
:205FC000BBFD236AC3F8CC50206A06F0B9F8A069FFF73AFEA083A06938BD29462046FFF751
:205FE000ABFDF4E720462946FFF7A6FDE9E700BF2DE9F843C468B0F8A430A28B05469A42D4
:20600000A66900F0838008680F46FFF7C5FF002800F0848039688C4206D0AB6820469B6921
:2060200098470446002C6ED0E868A04219D095F89730012B02D9FEF7E3FEE86894F839303C
:2060400003F0400303F0FF01002B61D190F839305B0600F187800123A375EB6800229A75B0
:20606000EC60AB682846DB699847A069FFF7ECFDA08316B1238A834200D920824FF6FF73BA
:20608000984233D0226AB2F8A2304BB1218AB2F8A4200B44B0FBF2F093FBF2F3984225DCDC
:2060A000A069B04262D0FFF7DDFD01462846FFF7DFFE95F89730012B0FD91EB1304600218D
:2060C000FFF7B6FC95F8963013F0800F03F1010308BF03F07F0385F89630284605F08EFFCC
:2060E000284605F07DFF2046BDE8F883E8680021FFF722FD95F89730012B04D91EB1304613
:206100000021FFF795FC0020BDE8F88320468CE7243004F12401FFF73BFD9CE73B689C421E
:2061200082D105F1100705F190084745EBD204464FF6FF7909E0AB6820469B69394698475D
:2061400004464037B8457FF66DAF7B7D002BF8D0BB69002BF5D09B884B45F2D0002CEAD195
:206160003C46EEE72430FFF713FD74E72046BDE8F88300BF38B50568AB69834201D003B116
:2061800038BD4FF6FF71AA7DA983002AF8D02A6A0446D2F8900030B104F00AF82B6A00224A
:2061A000C3F89020AB699C42EAD12B6A3BB193F89730012B03D920460021FFF739FC2846CC
:2061C000BDE838400021FFF7B7BC00BF10B50446FFF7D0FF034B2146BDE81040186801F06A
:2061E00001BE00BF0C010020FFF7F0BF30B50F4C83B00546206801F021FD014628B912E0E0
:20620000206801F0E9FC014668B10B68AB42F7D108460191FFF7DAFF0199206801F0DCFCFE
:2062200001460028F1D103B030BD00BF0C01002010B5837D044683B1036A002282752BB1FC
:2062400093F89730012B01D9FEF7DAFD94F839305B0605D42046FFF7C9FF0023637510BDFF
:2062600004F124000021FFF793FCF3E770B583690446934215460E460FD0837D5BB1036A4E
:206280004BB193F89730012B05D91046FFF7EAFC2146FEF7C7FD2E6070BD0021FFF74CFC3A
:2062A0004FF6FF72A37DA283002BF4D0236AD3F890000028EFD003F07BFF236A0022C3F84E
:2062C0009020E8E770B50D4B93F895404CB1064603F1100403F19005A37D23B94034AC422A
:2062E000FAD1002070BD94F838202046D208314606F0D0FD0028F1D1204670BD84210020E6
:20630000044B93F8950020B1D868837D002B08BF0020704784210020064991F8953033B1EE
:2063200091F8942082420CBF0846002070471846704700BF842100202DE9F0474B7D0C466C
:20634000012B06D0DFF854A10A8ABAF820309A4201D0BDE8F0878046087EFFF7BBFD0646CA
:206360000028F6D021464246356AFFF7E1FD8146002800F08C80637E04F13C07837194F849
:2063800051305B0678D40123B375A37DF0223375217D3046F174E17DB174C5F808A094F8BC
:2063A00015E0494685F897E094F854E085F800E094F855E085F801E094F856E085F802E008
:2063C00094F857E0EE6085F803E085F89620228CA5F8A220628CA5F8A420A27E85F8982068
:2063E00094F81BE0724485F899E085F89C20227F85F89A20627F85F89B20E28BA5F8A62070
:20640000D4F804C0D4F808E0E268D4F800A0C6F804C0C6F800A0C6F808E0F260D7F808C013
:20642000D7F80CE03C687A68C6F82CC0C6F830E07462B2627A693C69B2637463FFF77CFBD8
:20644000AB682846DB6998474846FFF7FDFB124BB0831A683082C2B1284605F0C1FD284656
:206460004146FFF705FD95F8973053B9AB683046BDE8F0471B68184739460020FFF788FBDE
:2064800081E7284605F0BAFDF0E71D60E4E785F89500BDE8F08700BF802100200803002082
:2064A000002841D02DE9F04105464FF6FF781F4E82B000F1100400F19007637DD3B9403449
:2064C000BC42FAD1002385F8A130284605F088FD95F89730012B0AD995F8963013F0800F52
:2064E00003F1010308BF03F07F0385F8963002B0BDE8F081A4F81C80306801F09FFB0146BB
:206500000028DCD00B68A34208D0306801F064FB01460028D3D00B68A342F6D1084601917E
:20652000FFF728FE0199F0E7704700BF0C010020F8B590F89730C268012B05460C4697693C
:2065400005D90846FFF78EFB03F0DCFC60BB4FF6FF73A28821689A4216D0086AB0F8A23092
:2065600043B9012621462846FFF742FD0446A0B13046F8BD0E8AB0F8A410334493FBF1F34B
:20658000B2FBF1F29A42ECDD2046FFF7F3FDEB689B69A34218D00020F8BD002FE8D028462C
:2065A000FFF77EFF2046F8BD2046FFF7C7FB0028CDD195F89730012BC9D92046FFF752FB9E
:2065C0002168FEF72FFCC2E70026CBE72DE9F8430646087E0C46FFF77DFC0546002800F04A
:2065E000988030462F6AFFF70FFB78B1D0F80080B8F1000F0AD03046FFF706FB064610B1F7
:20660000036898457FD000239B80FFDE324628462146FFF78DFC064600287CD0628A3F4BC6
:20662000B280188C218ABA68884218BF00239A4262D197F89720637D9A425DD1B7F8A22043
:20664000238C9A4258D1B7F8A420638C9A4253D1B7F89820638B9A424ED1B7F89A20A38B3D
:206660009A4249D1B7F8A620E38B9A4244D1234601226A75217D2846E974A17D297594F834
:2066800017E0314685F812E0D4F80090D4F80480D4F808C0D4F80CE0C5F80090C5F8048097
:2066A000C5F808C0C5F80CE053F83CCFD3F804E0D3F80890D3F80C80C5F824C0C5F828E087
:2066C000C5F82C90C5F83080D3F810C0D3F814E0C5F834C0C5F838E0FFF72EFA3046FFF76A
:2066E000B3FA3146A88328823846FFF721FF637E2846B371BDE8F8833046FFF767FD00208A
:206700006875BDE8F883404629463246FFF7AEFD84E7BDE8F8836875BDE8F88308030020BB
:2067200038B5124D286801F089FA044630B91CE02146286801F050FA0446B0B12368002B47
:20674000F6D01A6A002AF3D0E279D107F0D522F00102E2712146186AFFF7EAFE21462868E4
:2067600001F03AFA04460028E8D138BD0C0100202DE9F8434C7D022C01D0BDE8F883B94E67
:20678000074696F895300C460A7E1BB196F8943093420DD0384601212246FEF7EFFD28B1ED
:2067A00038462146BDE8F843FFF7C6BDBDE8F88396F825303BB106F11000102206F06AFB18
:2067C000002800F0CB8096F865303BB1A6482146102206F05FFB002800F04281F268B6F88D
:2067E000A430928BDFF87C829A42C6D0384601212246FEF7C3FD002800F090803846214697
:20680000FFF7E4FE05460028B7D0B8F8A430628A9A42B2D394F850201AB194F851305906A2
:2068200044D4384601212246FEF7A8FD00283BD0B6F8A430AA8BDFF82C829A420BD14FF632
:20684000FF73628A9A4298D098F89E30013388F89E30BDE8F88398F8991098F898200323EF
:206860000A4482499340A1FB03239B09EB633846FFF7CAF9064610B103689D421CD0384680
:20688000FFF7C2F9002859D0D0F80080B8F1000F54D03846FFF7B8F9064610B10368984558
:2068A00055D000239B80FFDEBDE8F883284604F13C01FFF791FAB4E78288638A9A4223D0F6
:2068C0001A464FF6FF73B280628A9A4215D0F379DFF8908143F00103F37140463146FFF7E0
:2068E00027FE00283FF449AFAB7D13B1AB69B34216D0637EB371BDE8F883AB69B342E6D160
:20690000584805F06DFBE2E7AB7D002BD9D098F89E30013388F89E30628AD2E7BDE8F88310
